:100000000C942A000C9434000C9434000C943400AA
:100010000C9434000C9434000C9434000C94340090
:100020000C9434000C9434000C9434000C94340080
:100030000C9434000C9434000C9434000C94340070
:100040000C9434000C9434000C9434000C94340060
:100050000C94340011241FBECFE5D8E0DEBFCDBF25
:100060000E9436000C945B000C9400001ABA40E029
:1000700050E061E070E089B390E0042E02C09595F5
:1000800087950A94E2F780FF0EC08AB3FB01042E25
:1000900002C0EE0FFF1F0A94E2F79F018E2B8ABB6E
:1000A0008BB3282B2BBB4F5F5F4F4830510518F3A4
:0A00B00040E050E0E0CFF894FFCFED
:00000001FF
