:100000000C942A000C9447000C9447000C94470071
:100010000C9447000C9447000C9447000C94490042
:100020000C9447000C9447000C9447000C94470034
:100030000C9447000C9447000C9447000C94470024
:100040000C9447000C9447000C9447000C94470014
:100050000C94470011241FBECFE5D8E0DEBFCDBF12
:1000600010E0A4E6B0E001C01D92AD36B107E1F7A3
:1000700010E0A0E6B0E0EAE8F3E002C005900D92DF
:10008000A436B107D9F70E9472000C94C3010C94F6
:1000900000001F920F920FB60F9211248F939F931F
:1000A0008AB59BB5835F9C4F9BBD8ABD80916500DF
:1000B000809166008091670080916800809169005E
:1000C00080916A0080916B0080916C008091640047
:1000D0008F5F809364009F918F910F900FBE0F9060
:1000E0001F901895FF920F93DF93CF9300D0CDB759
:1000F000DEB781E08EBD80E189BF1ABA789400E056
:10010000FF24F3941DC0802F90E09A8389830E947E
:10011000420169E170E00E94A8009C012F5F3F4FFF
:10012000442737FD4095542F6DE073E080E090E068
:100130000E94BB00E981FA81EB59FF4F20830F5FDA
:10014000083008F3C89B02C0FABAFBBA00E0DBCF64
:1001500097FB092E07260AD077FD04D02ED006D0B3
:1001600000201AF4709561957F4F0895F6F79095E9
:1001700081959F4F0895A1E21A2EAA1BBB1BFD017A
:100180000DC0AA1FBB1FEE1FFF1FA217B307E40776
:10019000F50720F0A21BB30BE40BF50B661F771FCE
:1001A000881F991F1A9469F76095709580959095AE
:1001B0009B01AC01BD01CF010895AA1BBB1B51E1FE
:1001C00007C0AA1FBB1FA617B70710F0A61BB70BC7
:1001D000881F991F5A95A9F780959095BC01CD016C
:1001E0000895A0E0B0E0E7EFF0E00C949401EC019A
:1001F000A880B980CA80DB80A114B104C104D104F5
:1002000041F484E2A82E89EDB82E8BE5C82E87E054
:10021000D82EC601B5012DE133EF41E050E00E9438
:10022000710127EA31E440E050E00E9452017B0175
:100230008C01C601B5012DE133EF41E050E00E9491
:100240007101CA01B9012CEE34EF4FEF5FEF0E944C
:1002500052016E0D7F1D801F911F97FF04C06150DA
:10026000704080409048688379838A839B839B0198
:100270003F77C901CDB7DEB7EAE00C94B0010E9428
:10028000F100089580E690E00E94F1000895A0E05A
:10029000B0E08093600090936100A0936200B093FF
:1002A00063000895629FD001739FF001829FE00D6B
:1002B000F11D649FE00DF11D929FF00D839FF00DE5
:1002C000749FF00D659FF00D9927729FB00DE11D91
:1002D000F91F639FB00DE11DF91FBD01CF0111246E
:1002E000089597FB092E05260ED057FD04D043DF55
:1002F0000AD0001C38F450954095309521953F4F19
:100300004F4F5F4F0895F6F79095809570956195E2
:100310007F4F8F4F9F4F08952F923F924F925F9242
:100320006F927F928F929F92AF92BF92CF92DF9205
:10033000EF92FF920F931F93CF93DF93CDB7DEB76A
:10034000CA1BDB0B0FB6F894DEBF0FBECDBF0994FE
:100350002A88398848885F846E847D848C849B8455
:10036000AA84B984C884DF80EE80FD800C811B8163
:10037000AA81B981CE0FD11D0FB6F894DEBF0FBE92
:0A038000CDBFED010895F894FFCF02
:04038A00010000006E
:00000001FF
