:100000000C942A000C943F000C943F000C943F0089
:100010000C943F000C943F000C943F000C943F0064
:100020000C943F000C943F000C943F000C943F0054
:100030000C943F000C943F000C943F000C943F0044
:100040000C943F000C943F000C943F000C943F0034
:100050000C943F0011241FBECFE5D8E0DEBFCDBF1A
:1000600010E0A0E6B0E0EAE9F1E002C005900D92F0
:10007000AE36B107D9F70E949B000C94CB000C94CC
:1000800000008FEF84BB88EF8ABB11BA08959C01F2
:100090006AE070E00E94B70080936A00C90164E6DC
:1000A00070E00E94B7006AE070E00E94B7006093C1
:1000B0006B00C90164E670E00E94B700CB016AE002
:1000C00070E00E94B70080936C00C90168EE73E095
:1000D0000E94B70060936D000895CF93DF93BC0139
:1000E00040E050E0C1E0D0E0A0EDB7E01EC024E069
:1000F00030E0F901EA59FF4FE081F0E0E05AFF4FAC
:10010000808185BBCE01022E02C0880F991F0A9400
:10011000E2F78BBBCD010197F1F71BBA2F5F3F4F81
:100120002830310531F74F5F5F4F46175707F8F218
:10013000DF91CF910895CF93DF938FEF84BB88EF4A
:100140008ABB11BA80E090E00E944700C0E0D0E096
:10015000219687E2C031D80711F4C0E0D0E0CE018B
:100160000E94470084E690E00E946D00F1CFAA1B38
:10017000BB1B51E107C0AA1FBB1FA617B70710F092
:10018000A61BB70B881F991F5A95A9F780959095C4
:0A019000BC01CD010895F894FFCFE3
:0E019A003F065B4F666D7D077F6F0102030419
:00000001FF
