:100000000C942A000C9434000C9434000C943400AA
:100010000C9434000C9434000C9434000C94340090
:100020000C9434000C9434000C9434000C94340080
:100030000C9434000C9434000C9434000C94340070
:100040000C9434000C9434000C9434000C94340060
:100050000C94340011241FBECFE5D8E0DEBFCDBF25
:100060000E9445000C9453000C94000010BC89B908
:1000700088E18AB986E880BD08955F9BFECF8CB188
:1000800008955D9BFECF8CB908958FE081BB10BCB5
:1000900086E089B988E18AB986E880BD87E35D9BFF
:0A00A000FECF8CB9FCCFF894FFCF1F
:00000001FF
