:100000000C942A000C9434000C9434000C943400AA
:100010000C9434000C9434000C9434000C94340090
:100020000C9434000C9434000C9434000C94340080
:100030000C9434000C9434000C9434000C94340070
:100040000C9434000C9434000C9434000C94340060
:100050000C94340011241FBECFE5D8E0DEBFCDBF25
:100060000E9436000C945D000C9400008FEF84BB5E
:1000700088E08ABB8BBB31E035BB87E090E025B3DD
:10008000220F25BB2FEF40E752E021504040504067
:10009000E1F700C000000197009789F787E090E042
:1000A00025B3269525BBEFE4F3EC3197F1F700C0BB
:0E00B000000001970097A1F7DFCFF894FFCF73
:00000001FF
