:1000000012C021C020C01FC01EC01DC01CC01BC00C
:100010001AC019C018C028C050C015C014C013C0E1
:1000200012C011C010C011241FBECFE5D4E0DEBF46
:10003000CDBF10E0A0E6B0E001C01D92A53AB10727
:10004000E1F702D0BFC0DCCF83E390E05BD07894CF
:100050006DD090FDFDCF93FDFBCF92FDF9CF91FDCB
:10006000F7CF8F5F7ED0F4CF1F920F920FB60F9213
:1000700011242F938F939F93EF93FF938BB19CB198
:10008000E0918200EF5FEF7120918300E21741F071
:100090008871E0938200F0E0EC57FF4F908301C03D
:1000A00082E08093A400FF91EF919F918F912F9117
:1000B0000F900FBE0F901F9018951F920F920FB6C2
:1000C0000F9211248F939F93EF93FF939091600071
:1000D00080916100981761F0E0916100EF5FEF712E
:1000E000E0936100F0E0EE59FF4F80818CB901C0D0
:1000F0005598FF91EF919F918F910F900FBE0F90A8
:100100001F9018951092600010926100109282006A
:100110001092830097FF03C022E02BB99F7790BD18
:1001200089B988E98AB986E880BD089590918200EE
:1001300080918300981789F0E0918300EF5FEF7161
:10014000E0938300F0E0EC57FF4F80819091A40092
:10015000392F20E0280F311D02C020E031E0C90115
:100160000895909160009F5F9F71209161009217A8
:10017000E1F3E92FF0E0EE59FF4F808390936000A8
:10018000559A0895EF92FF92CF93DF93E82EE701FF
:100190007E01F92EE70101C0E4DF89918823E1F7B0
:1001A000DF91CF91FF90EF900895CF93DF93EC0113
:1001B00001C0D7DFFE01219684918823D1F7DF911A
:0801C000CF910895F894FFCFE0
:00000001FF
