:100000000C94A7000C94C4000C94C4000C94C4007D
:100010000C94C4000C94C4000C944C010C94C400C7
:100020000C94C4000C9412010C94C4000C94C400F1
:100030000C94C4000C94C4000C94C4000C94C40030
:100040000C94C4000C94C4000C94C4000C94C40020
:100050000C94C40000407A10F35A00A0724E1809A4
:100060000010A5D4E80000E87648170000E40B541F
:10007000020000CA9A3B000000E1F50500008096EE
:100080009800000040420F000000A0860100000020
:10009000102700000000E8030000000064000000DA
:1000A00000000A00000000000100000000002C76A3
:1000B000D888DC674F0823DFC1DFAE59E1B1B796BE
:1000C000E5E3E453C63AE651997696E8E6C284261B
:1000D000EB898C9B62ED407C6FFCEFBC9C9F40F2F7
:1000E000BAA56FA5F490055A2AF75C936B6CF96773
:1000F0006DC11BFCE0E40D47FEF520E6B500D0ED38
:10010000902E0300943577050080841E080000209F
:100110004E0A000000C80C333333330F986E12833D
:100120001141EF8D2114893BE65516CFFEE6DB1811
:10013000D1844B381BF77C1D901DA4BBE4242032D6
:1001400084725E228100C9F124ECA1E53D271124CF
:100150001FBECFE5D8E0DEBFCDBF10E0A0E6B0E027
:10016000ECE9FDE002C005900D92A037B107D9F788
:1001700010E0A0E7B0E001C01D92A038B107E1F7A0
:100180000E94B7010C94CC060C9400008AE48EBD4A
:1001900084E289BF1DBC1CBC0895EF92FF920F93AF
:1001A0001F93209160003091610040916200509156
:1001B0006300CA01B9010E947D0220E030E040EBFB
:1001C00051E40E94D70320E030E040EE50E40E946A
:1001D000E1027B018C0160917C0070917D00809137
:1001E0007E0090917F002DEB37E346E057E30E94BD
:1001F000D7039B01AC01C801B7010E94E10226E6CA
:1002000036E646E650E40E94D70360937800709388
:10021000790080937A0090937B001F910F91FF905B
:10022000EF9008951F920F920FB60F9211242F9303
:100230003F934F935F936F937F938F939F93AF936E
:10024000BF93EF93FF931DBC1CBC60917000709135
:100250007100809172009091730020E030E040E8DE
:100260005FE30E947D026093700070937100809341
:10027000720090937300FF91EF91BF91AF919F91A6
:100280008F917F916F915F914F913F912F910F903F
:100290000FBE0F901F9018951F920F920FB60F92DE
:1002A0001124EF92FF920F931F932F933F934F933D
:1002B0005F936F937F938F939F93AF93BF93EF93CE
:1002C000FF93869B2FC066B577B580E090E00E94D3
:1002D00049037B018C0160937400709375008093D7
:1002E0007600909377008AE08EBD609170007091E7
:1002F0007100809172009091730020E03FEF4FE712
:1003000057E40E94D7039B01AC01C801B7010E94CA
:100310007D0260937C0070937D0080937E009093BB
:100320007F0010C080E090E0A0E0B0E0809370001B
:1003300090937100A0937200B09373001DBC1CBC1D
:100340008AE48EBDFF91EF91BF91AF919F918F9104
:100350007F916F915F914F913F912F911F910F91DD
:10036000FF90EF900F900FBE0F901F901895AF92D7
:10037000BF92CF92DF92EF92FF920F931F93DF9382
:10038000CF93CDB7DEB764970FB6F894DEBF0FBE3C
:10039000CDBF8AE48EBD84E289BF1DBC1CBC7894AD
:1003A00087E690E00E94140299E0C92ED12CCC0E71
:1003B000DD1E7E010894E11CF11C80E9A82E81E07D
:1003C000B82E0E94CD0060917000709171008091F4
:1003D00072009091730043E020E086010E943A048D
:1003E00060917C0070917D0080917E0090917F00F3
:1003F0004AE020E00E943A04609178007091790010
:1004000080917A0090917B0046E023E087010E9472
:100410003A04C7010E942E0288E893E1F501319762
:10042000F1F70197D9F7CDCF89B9892F990F990B9A
:1004300080BD88E98AB908955D9BFECF8CB9089587
:100440005F9BFECF8CB10895FC0104C05D9BFECF85
:1004500031968CB984918823C9F70895FC0104C0B2
:100460005D9BFECF31968CB980818823C9F70895B2
:10047000DF93CF93CDB7DEB72B970FB6F894DEBFDF
:100480000FBECDBF813011F494E005C0823011F46D
:1004900098E001C092E0DE011196E4E6F0E08BE026
:1004A00001900D928150E1F79E012E5F3F4F842F06
:1004B0008F70E92FF0E08A3020F4E20FF31F805DA7
:1004C00003C0E20FF31F895C8083915041F0E4E0A8
:1004D0007695679557954795EA95D1F7E8CFCE0180
:1004E00001960E942E022B960FB6F894DEBF0FBE27
:1004F000CDBFCF91DF9108955058BB27AA270ED0CA
:100500001CC10DD130F012D120F031F49F3F11F415
:100510001EF402C10EF4E095E7FBF8C0E92F1ED1EE
:1005200080F3BA17620773078407950718F071F410
:100530009EF536C10EF4E0950B2EBA2FA02D0B01BF
:10054000B90190010C01CA01A0011124FF27591B18
:1005500099F0593F50F4503E68F11A16F040A22F1E
:10056000232F342F4427585FF3CF4695379527958F
:10057000A795F0405395C9F77EF41F16BA0B620B8E
:10058000730B840BBAF09150A1F0FF0FBB1F661FD5
:10059000771F881FC2F70EC0BA0F621F731F841F18
:1005A00048F4879577956795B795F7959E3F08F03E
:1005B000B3CF9395880F08F09927EE0F97958795FD
:1005C00008950CD0BAC0B2D040F0A9D030F021F4D8
:1005D0005F3F19F09BC05111E4C09EC0BFD098F39B
:1005E0009923C9F35523B1F3951B550BBB27AA27B4
:1005F00062177307840738F09F5F5F4F220F331F26
:10060000441FAA1FA9F333D00E2E3AF0E0E830D0F1
:1006100091505040E695001CCAF729D0FE2F27D0F4
:10062000660F771F881FBB1F261737074807AB07C2
:10063000B0E809F0BB0B802DBF01FF2793585F4F37
:100640002AF09E3F510568F061C0ABC05F3FECF3FC
:10065000983EDCF3869577956795B795F7959F5FFC
:10066000C9F7880F911D9695879597F90895E1E050
:10067000660F771F881FBB1F621773078407BA07AF
:1006800020F0621B730B840BBA0BEE1F88F7E0950A
:100690000895E89409C097FB3EF490958095709575
:1006A00061957F4F8F4F9F4F9923A9F0F92F96E9BE
:1006B000BB279395F695879577956795B795F11133
:1006C000F8CFFAF4BB0F11F460FF1BC06F5F7F4FD0
:1006D0008F4F9F4F16C0882311F096E911C07723E2
:1006E00021F09EE8872F762F05C0662371F096E8EB
:1006F000862F70E060E02AF09A95660F771F881FBA
:10070000DAF7880F9695879597F9089597F99F6777
:1007100080E870E060E008959FEF80EC0895002489
:100720000A941616170618060906089500240A9456
:1007300012161306140605060895092E0394000CDC
:1007400011F4882352F0BB0F40F4BF2B11F460FF6B
:1007500004C06F5F7F4F8F4F9F4F089557FD905894
:10076000440F551F59F05F3F71F04795880F97FB75
:10077000991F61F09F3F79F087950895121613062F
:100780001406551FF2CF4695F1DF08C0161617065E
:100790001806991FF1CF8695710561050894089593
:1007A000E894BB2766277727CB0197F908950BD0EC
:1007B000C4CFB5DF28F0BADF18F0952309F0A6CF33
:1007C000ABCF1124EECFCADFA0F3959FD1F3950FE5
:1007D00050E0551F629FF001729FBB27F00DB11DC5
:1007E000639FAA27F00DB11DAA1F649F6627B00D55
:1007F000A11D661F829F2227B00DA11D621F739F3E
:10080000B00DA11D621F839FA00D611D221F749F4B
:100810003327A00D611D231F849F600D211D822F92
:10082000762F6A2F11249F5750408AF0E1F08823D9
:100830004AF0EE0FFF1FBB1F661F771F881F9150E6
:100840005040A9F79E3F510570F060CFAACF5F3F9F
:10085000ECF3983EDCF3869577956795B795F79519
:10086000E7959F5FC1F7FE2B880F911D96958795A1
:1008700097F90895EF92FF920F931F93F22FF02EA6
:1008800047FD02C0E4E001C0E4E1242F332727FD47
:10089000309537FF03C0309521953F4F4F2D512F95
:1008A0000F2FEE2E0E945B048F2D912F1F910F9121
:1008B000FF90EF900895A9E0B0E0E1E6F4E00C9439
:1008C00099066A01122FA02EBE2C2BE3201718F4D4
:1008D0002CE3922E02C0902E9394AE014F5F5F4F97
:1008E00027E0092D0E94BD05BC018981E82EFF2467
:1008F000C70189709070019711F4ADE209C0B1FE93
:1009000002C0ABE205C0B0FC02C0A0E001C0A0E2A2
:10091000E3FE3BC0AA2311F423E001C024E0211729
:1009200010F020E002C0121B212FEB2CB4FE02C0FD
:10093000322F0AC0F601322F80E202C0819331507B
:100940003323E1F7C20ED11CAA2319F0F601A193BB
:100950006F01F6013196E2FE05C09EE4D6019C933C
:1009600081E404C09EE6D6019C9381E611968C93A7
:1009700091833296DF01832F90E202C09D938150D4
:100980008823E1F7E30FF11D40C0E2FE42C0AA2335
:1009900011F423E001C024E0211710F020E002C090
:1009A000121B212FEB2CB4FE02C0922F0AC0F601BD
:1009B000922F80E202C0819391509923E1F7C20EF9
:1009C000D11CAA2319F0F601A1936F01F60131960B
:1009D000E2FE08C089E4D6018C938EE411968C93D4
:1009E00086E407C089E6D6018C938EE611968C9337
:1009F00086E681833296DF01892F20E202C02D93A3
:100A000081508823E1F7E90FF11D10822EEF3FEFAF
:100A1000AFC0161617061CF041E050E003C0AB0152
:100A20004F5F5F4FAA2019F480E090E003C08A2D49
:100A300090E0019620E030E0AA2311F021E030E0C0
:100A4000240F351F280F391F812F90E028173907F1
:100A500014F020E002C0121B212F4B2D50E0CA01E0
:100A600080719070B4FC0DC0B3FC0BC0F601322F46
:100A700040E202C0419331503323E1F7C20ED11C52
:100A800001C0322FAA2319F0F601A1936F01892B1F
:100A900011F0132F0AC0F601132F80E302C08193D7
:100AA00011501123E1F7C30ED11C092D060FBA8096
:100AB00090E1892E912C8E209F20E4FE04C0F1E36A
:100AC000BF1609F40150101614F001E003C00930FC
:100AD00008F008E09B0177FF02C020E030E0CB0186
:100AE0000196821B930BFE013196E80FF91F8EE2EF
:100AF000F82E3B01601A71088A2D90E04427552793
:100B0000481B590B8FEF2F3F380719F4D601FD9280
:100B10006D01621773072CF06216730614F480815E
:100B200001C080E32150304031962417350724F06E
:100B3000D6018D936D01E6CF2617370749F4B5E34B
:100B4000BB1528F0BB1621F48114910409F481E34C
:100B5000F6018193D601812F90E202C09C938150CF
:100B600011968823D9F7E10FF11D108220E030E0C3
:100B7000C9012996EEE00C94B506283008F027E06C
:100B80003327DA01990F311D87FD916000966105C9
:100B9000710539F432602E5F3D9330E32A95E1F719
:100BA00008959F3F30F080387105610509F03C5F82
:100BB0003C5F3D93913008F08068911DDF93CF93A7
:100BC0001F930F93FF92EF92192F987F9695E92F1D
:100BD00096959695E90FFF27E255FF4F9927332702
:100BE000EE24FF24A701E70105900894079428F458
:100BF000360FE71EF81E491F511D660F771F881F0D
:100C0000991F0694A1F70590079428F4E70EF81EA3
:100C1000491F561FC11D770F881F991F661F069415
:100C2000A1F70590079428F4F80E491F561FC71F17
:100C3000D11D880F991F661F771F0694A1F7059095
:100C4000079420F4490F561FC71FD81F990F661F1E
:100C5000771F881F0694A9F784911095177041F0AB
:100C6000D695C79557954795F794E7941A95C1F788
:100C7000E4E5F0E0689415901591359165919591B2
:100C800005907FE27395E118F10A430B560BC90BEF
:100C9000D009C0F7E10CF11E431F561FC91FD01D1C
:100CA0007EF4703311F48A95E6CFE894015030F069
:100CB000080F0AF40027021708F4202F2395022FAB
:100CC0007A3328F079E37D932A95E9F710C07D9374
:100CD0002A9589F6069497956795379517951794F1
:100CE000E118F10A430B560BC90BD00998F0239574
:100CF0007E9173957A3308F070E37C932013B8F7F4
:100D00007E9170617D9330F0839571E37D9370E304
:100D10002A95E1F71124EF90FF900F911F91CF9149
:100D2000DF91992787FD909508952F923F924F92DA
:100D30005F926F927F928F929F92AF92BF92CF926B
:100D4000DF92EF92FF920F931F93CF93DF93CDB774
:100D5000DEB7CA1BDB0B0FB6F894DEBF0FBECDBFEC
:100D600009942A88398848885F846E847D848C84BD
:100D70009B84AA84B984C884DF80EE80FD800C81C6
:100D80001B81AA81B981CE0FD11D0FB6F894DEBFA9
:0C0D90000FBECDBFED010895F894FFCF19
:100D9C000AD7A33C307820202020202020200000DF
:00000001FF
