:100000000C94E8000C9405010C9405010C94050176
:100010000C9405010C9405010C9405010C94050148
:100020000C9405010C9405010C9405010C94050138
:100030000C9405010C9405010C9405010C94050128
:100040000C9405010C9405010C9405010C94050118
:100050000C94050107634236B79BD8A71A39685636
:1000600018AEBAAB558C1D3CB7CC5763BD6DEDFDDA
:10007000753EF6177231BF000000803F0800000097
:10008000BE922449123EABAAAA2ABECDCCCC4C3E8D
:1000900000000080BEABAAAAAA3E00000000BF007C
:1000A0000000803F0000000000084178D3BB438778
:1000B000D1133D190E3CC3BD4282AD2B3E68EC828C
:1000C00076BED98FE1A93E4C80EFFFBE01C4FF7F11
:1000D0003F000000000000407A10F35A00A0724E6A
:1000E00018090010A5D4E80000E87648170000E4DD
:1000F0000B54020000CA9A3B000000E1F505000025
:1001000080969800000040420F000000A086010089
:100110000000102700000000E80300000000640059
:10012000000000000A0000000000010000000000C4
:100130002C76D888DC674F0823DFC1DFAE59E1B1E8
:10014000B796E5E3E453C63AE651997696E8E6C2F7
:100150008426EB898C9B62ED407C6FFCEFBC9C9FFE
:1001600040F2BAA56FA5F490055A2AF75C936B6C20
:10017000F9676DC11BFCE0E40D47FEF520E6B50014
:10018000D0ED902E0300943577050080841E080082
:1001900000204E0A000000C80C333333330F986E32
:1001A00012831141EF8D2114893BE65516CFFEE6EF
:1001B000DB18D1844B381BF77C1D901DA4BBE424B5
:1001C000203284725E228100C9F124ECA1E53D2732
:1001D00011241FBECFE5D8E0DEBFCDBF10E0A0E602
:1001E000B0E0EEE0F9E102C005900D92A236B10751
:1001F000D9F710E0A2E6B0E001C01D92A43DB1071E
:10020000E1F70E946D010C94850C0C94000011B86C
:1002100080E280B90895982F84EA86BF06B607FE6B
:10022000FDCF81B1887F883021F0803111F081E0ED
:10023000089593B984E886BF06B607FEFDCF91B155
:10024000987F983111F480E0089580E0903409F0AF
:1002500081E0089544EA34E824E946BF06B607FE83
:10026000FDCF91B1987F983011F09031B1F783B9FB
:1002700036BF06B607FEFDCF91B1987F903211F0E0
:10028000983529F426BF06B604FCFDCFE6CF0895C5
:100290000E940B01089584E986BF06B604FCFDCFD9
:1002A000089583B984E886BF06B607FEFDCF81B105
:1002B00090E0887F883209F091E0892F089584ECDE
:1002C00086BF06B607FEFDCF83B1089584E886BFDA
:1002D00006B607FEFDCF83B10895CF92DF92EF926D
:1002E000FF920F931F93DF93CF93CDB7DEB72A977B
:1002F0000FB6F894DEBF0FBECDBF8CE00E94510256
:1003000078940E94E6057E010894E11CF11C88ECBB
:10031000C82ED12C0E941A020E94320444E021E02F
:1003200087010E94AF09C7010E94370288E060E0A0
:100330000E940E020E94F80544E021E00E94AF09ED
:10034000C7010E94370280E690E00E9437020E94B7
:100350002506A7012AE030E00E94D009C7010E94CB
:10036000370288E99AE3F6013197F1F70197D9F757
:10037000D1CF282F662311F0DC9A01C0DC98DD98DC
:100380008AB38F608ABB9BB3907F822F82958F70D8
:10039000892B8BBBDE9A00C0DE982F70292B2BBBDC
:1003A000DE9A00C0DE989F609BBB0895882311F001
:1003B000DC9A01C0DC98DD9A8AB3807F8ABBDE9A22
:1003C00000C099B3DE9800C0DE9A00C089B38F7078
:1003D0009295907FDE98892B089580E00E94D60147
:1003E00087FDFBCF82E090E00197F1F780E00E946B
:1003F000D60108951F93182F0E94ED01812F60E010
:100400000E94B9011F9108951F93182F0E94ED01BA
:10041000812F61E00E94B9011F910895662311F4B4
:10042000805801C080540E94FA0108950E94ED0195
:1004300090E0089581E00E94FA01089582E00E9410
:10044000FA0108951F93182F0E94ED011A3049F404
:10045000803410F080E001C080E480580E94FA01EE
:1004600004C0812F61E00E94B9011F910895CF93CC
:10047000DF93EC0102C00E94220289918823D9F700
:10048000DF91CF910895CF93DF93EC0102C00E94DA
:100490002202FE01219684918823C9F7DF91CF9132
:1004A00008951F93182F8AB38F678ABB80E89EE355
:1004B0000197F1F7D99AD89ADE9A00C0DE9880E8C1
:1004C00093E10197F1F7DE9A00C0DE9880E490E0B6
:1004D000FC013197F1F7DE9A00C0DE98FC013197FC
:1004E000F1F7D898DE9A00C0DE980197F1F788E21C
:1004F0000E94FA0188E00E94FA010E941A0286E036
:100500000E94FA01812F0E94FA011F9108959B0118
:10051000AC01E2E6F0E084819581A681B781819308
:100520009193A193B19380E0E63BF807A1F7209364
:10053000B2003093B3004093B4005093B500E2E6AC
:10054000F0E020E030E040E050E081919191A19115
:10055000B191280F391F4A1F5B1F80E0E63BF80767
:10056000A1F7CA01B90125E130E040E050E00E9466
:100570009409CA01B9010895EF92FF920F931F9356
:10058000CF93DF93182F062FF72EE42E8EEE0E94C6
:100590002A01812F0E9451018FEE0E944801202FD5
:1005A0003F2DC901EC01FF240E2D10E00150104039
:1005B0000DC08F2D90E08017910719F40E946601FD
:1005C00002C00E945F018883F3942196FE1488F391
:1005D0000E944B01DF91CF911F910F91FF90EF90FF
:1005E00008950F931F93DF93CF9300D0CDB7DEB75D
:1005F0001A8219828AEA8E010F5F1F4FB80142E00A
:100600000E94BC02998180E02A8130E0822B932BEA
:100610009093CB008093CA008CEAB80142E00E941C
:10062000BC02998180E02A8130E0822B932B909349
:10063000D3008093D2008EEAB80142E00E94BC024F
:10064000998180E02A8130E0822B932B9093BF0028
:100650008093BE0080EBB80142E00E94BC02998109
:1006600080E02A8130E0822B932B9093B700809317
:10067000B60082EBB80142E00E94BC02998180E0A2
:100680002A8130E0822B932B9093CF008093CE0071
:1006900084EBB80142E00E94BC02998180E02A818B
:1006A00030E0822B932B9093C7008093C60086EB9B
:1006B000B80142E00E94BC02998180E02A8130E0CA
:1006C000822B932B9093C5008093C40088EBB801D4
:1006D00042E00E94BC02998180E02A8130E0822BB6
:1006E000932B9093B9008093B8008AEBB80142E055
:1006F0000E94BC02998180E02A8130E0822B932BFA
:100700009093CD008093CC008CEBB80142E00E9426
:10071000BC02998180E02A8130E0822B932B909358
:10072000D1008093D0008EEBB80142E00E94BC0261
:10073000998180E02A8130E0822B932B9093C9002D
:100740008093C8000F900F90CF91DF911F910F9170
:1007500008950F931F93182F062F8EEE0E942A01E3
:10076000812F0E945101802F0E9451010E944B0154
:100770001F910F910895EF92FF920F931F93DF93B4
:10078000CF9300D0CDB7DEB71A82198284EF6EE224
:100790000E94A90380E197E20197F1F786EFBE017D
:1007A0006F5F7F4F42E00E94BC02698170E080E091
:1007B00090E0982F872F762F66272A8130E040E03F
:1007C00050E0622B732B842B952B2091C600309127
:1007D000C70040E050E0621B730B840B950B209127
:1007E000CE003091CF0040E050E00E9453097B01E1
:1007F0008C013FE015950795F794E7943A95D1F76A
:100800006091D0007091D100882777FD8095982F56
:100810002BE0660F771F881F991F2A95D1F720912B
:10082000C8003091C900442737FD4095542F2E0D44
:100830003F1D401F511F0E949409E20EF31E041F2A
:10084000151FE092C000F092C1000093C200109307
:10085000C3000F900F90CF91DF911F910F91FF90E8
:10086000EF9008950E94BB036091C0007091C10099
:100870008091C2009091C300685F7F4F8F4F9F4F60
:1008800054E095958795779567955A95D1F70E948D
:10089000FF0620E030E040E251E40E949506089512
:1008A0002F923F924F925F926F927F928F929F9280
:1008B000AF92BF92CF92DF92EF92FF920F931F936E
:1008C000DF93CF93CDB7DEB727970FB6F894DEBF8F
:1008D0000FBECDBF8E010F5F1F4F83E0D8011D9269
:1008E0008A95E9F70E94BB0384EF64EF0E94A90395
:1008F00080E29BEC0197F1F786EFB80143E00E949C
:10090000BC026090C0007090C1008090C2009090C6
:10091000C30080E690EFAFEFBFEF680E791E8A1E2E
:100920009B1EC401B301A40193010E9453091B0142
:100930002C016091BE007091BF00882777FD8095E3
:10094000982F0E9453097B018C018DE01595079526
:10095000F794E7948A95D1F782E090E0A0E0B0E0C8
:10096000E80EF91E0A1F1B1FC201B101BCE09595DC
:10097000879577956795BA95D1F72091C400309106
:10098000C500442737FD4095542F0E945309BC01F0
:10099000992777FD9095892FE60EF71E081F191FDE
:1009A000F2E015950795F794E794FA95D1F780E072
:1009B00090E8A0E0B0E0E80EF91E0A1F1B1F20918E
:1009C000B6003091B70040E050E0C801B7010E9486
:1009D0005309DC01CB01EFE0B695A7959795879574
:1009E000EA95D1F78C839D83AE83BF83A980BB2416
:1009F000CC24DD246501BB24AA248A8190E0A0E0F8
:100A0000B0E0BA2FA92F982F8827A82AB92ACA2A76
:100A1000DB2A8B8190E0A0E0B0E0A82AB92ACA2A9C
:100A2000DB2A55E0D594C794B794A7945A95D1F78B
:100A30006091D2007091D300882777FD8095982F20
:100A4000A40193010E9453097B018C014BE0159591
:100A50000795F794E7944A95D1F78091CA00909151
:100A6000CB00AA2797FDA095BA2F32E0880F991FD7
:100A7000AA1FBB1F3A95D1F7E80EF91E0A1F1B1FCC
:100A80002091B8003091B900442737FD4095542F8C
:100A9000C201B1010E94530927E195958795779589
:100AA00067952A95D1F7E60EF71E081F191FEE0C61
:100AB000FF1C001F111FAE18BF08C00AD10AC601D3
:100AC000B5012AE638E140E050E00E94530997FD65
:100AD0000FC0660F771F881F991F2C813D814E81A3
:100AE0005F810E947209C901DA015C016D010CC0CD
:100AF0002C813D814E815F810E94720959016A01FA
:100B0000AA0CBB1CCC1CDD1C5527D7FC5A954D2DBF
:100B10003C2D2B2DCA01B9010E9453092EED3BE05B
:100B200040E050E00E9453097B018C01C601B501F1
:100B300023E433EE4FEF5FEF0E945309BC01992786
:100B400077FD9095892F6153714F8F4F9F4F78019B
:100B50001127F7FC1095012F6E0D7F1D801F911F2F
:100B6000E4E09595879577956795EA95D1F76A0DB5
:100B70007B1D8C1D9D1D6093BA007093BB008093FC
:100B8000BC009093BD000E9487026093BA007093EE
:100B9000BB008093BC009093BD0027960FB6F894DD
:100BA000DEBF0FBECDBFCF91DF911F910F91FF90A0
:100BB000EF90DF90CF90BF90AF909F908F907F90FD
:100BC0006F905F904F903F902F9008951F930E94D9
:100BD00007018AE18A95F1F70E94F1020E94BB03A6
:100BE00010E00E9450041F5F1531D9F71F9108953E
:100BF0000E9450046091BA007091BB008091BC00CB
:100C00009091BD000E94FF0620E836EE45EC57E4C7
:100C10000E94950621E03EED42E45EE30E948B07D0
:100C20009B01AC0160E070E080E89FE30E94300629
:100C30002BE43AE34DEB57E30E94950620E030E0C9
:100C400040E050E00E94310608950E9450046091F7
:100C5000BA007091BB008091BC009091BD000895D6
:100C60005058BB27AA270ED01CC10DD130F012D18D
:100C700020F031F49F3F11F41EF402C10EF4E09510
:100C8000E7FBF8C0E92F1ED180F3BA17620773079C
:100C90008407950718F071F49EF536C10EF4E095BF
:100CA0000B2EBA2FA02D0B01B90190010C01CA0126
:100CB000A0011124FF27591B99F0593F50F4503ED1
:100CC00068F11A16F040A22F232F342F4427585FC3
:100CD000F3CF469537952795A795F0405395C9F7DB
:100CE0007EF41F16BA0B620B730B840BBAF0915093
:100CF000A1F0FF0FBB1F661F771F881FC2F70EC032
:100D0000BA0F621F731F841F48F487957795679504
:100D1000B795F7959E3F08F0B3CF9395880F08F0ED
:100D20009927EE0F9795879508950CD0BAC0B2D049
:100D300040F0A9D030F021F45F3F19F09BC0511171
:100D4000E4C09EC0BFD098F39923C9F35523B1F3F3
:100D5000951B550BBB27AA2762177307840738F02A
:100D60009F5F5F4F220F331F441FAA1FA9F333D089
:100D70000E2E3AF0E0E830D091505040E695001C3D
:100D8000CAF729D0FE2F27D0660F771F881FBB1FF9
:100D9000261737074807AB07B0E809F0BB0B802DD3
:100DA000BF01FF2793585F4F2AF09E3F510568F01F
:100DB00061C0ABC05F3FECF3983EDCF3869577955E
:100DC0006795B795F7959F5FC9F7880F911D969521
:100DD000879597F90895E1E0660F771F881FBB1F7D
:100DE000621773078407BA0720F0621B730B840B2A
:100DF000BA0BEE1F88F7E0950895E89409C097FBB9
:100E00003EF490958095709561957F4F8F4F9F4FE1
:100E10009923A9F0F92F96E9BB279395F695879525
:100E200077956795B795F111F8CFFAF4BB0F11F4E8
:100E300060FF1BC06F5F7F4F8F4F9F4F16C088238F
:100E400011F096E911C0772321F09EE8872F762FC5
:100E500005C0662371F096E8862F70E060E02AF006
:100E60009A95660F771F881FDAF7880F96958795F2
:100E700097F9089597F99F6780E870E060E008951A
:100E80009FEF80EC089500240A94161617061806A2
:100E90000906089500240A9412161306140605067E
:100EA0000895092E0394000C11F4882352F0BB0F0F
:100EB00040F4BF2B11F460FF04C06F5F7F4F8F4F72
:100EC0009F4F089557FD9058440F551F59F05F3FAD
:100ED00071F04795880F97FB991F61F09F3F79F05C
:100EE00087950895121613061406551FF2CF4695DE
:100EF000F1DF08C0161617061806991FF1CF869560
:100F00007105610508940895E894BB276627772743
:100F1000CB0197F90895FA01EE0FFF1F30962105D6
:100F2000310599F16115710561F48038BFE39B07C4
:100F300049F168949038810561F08038BFEF9B07D4
:100F400041F0992342F5FF3FE1053105210511F1FB
:100F5000E8940894E795D901AA2329F4AB2FBE2F72
:100F6000F85FD0F310C0FF5F70F4A695E0F7F73993
:100F700050F019F0FF3A38F49F779F930CD00F9000
:100F800007FC905808953EF07BCF60E070E080E869
:100F90009FE308954FE79F775F934F933F932F937E
:100FA0009ED02F913F914F915F910CD105C019F4C4
:100FB0000EF060CFA9CF64CF8DDFC8F39638C0F7AD
:100FC00007F80F92E8942BE33AEA48EB5FE708D181
:100FD0000F920F920F924DB75EB70F92C0D0E4E51B
:100FE000F0E016D04F915F91EF91FF91E595EE1FE4
:100FF000FF1F49F0FE57E0684427EE0F441FFA95A3
:10100000E1F74195550B32D00F9007FE26C00895A9
:10101000DF93CF931F930F93FF92EF92DF927B01A9
:101020008C01689405C0DA2EEF01D8D0FE01E89457
:10103000A5912591359145915591AEF3EF0122DEB1
:10104000FE019701A801DA9479F7DF90EF90FF9005
:101050000F911F91CF91DF9108959B01AC0160E04A
:1010600070E080E89FE361CE05CF0FC133DFE8F386
:101070009923D9F3940F511DBBF39150504094F034
:1010800059F0882332F0660F771F881F9150504027
:10109000C1F79E3F510544F7880F911D969587959E
:1010A00097F908955F3FACF0983E9CF0BB2786957A
:1010B00077956795B79508F4B1609395C1F7BB0F25
:1010C00058F711F460FFE8CF6F5F7F4F8F4F9F4F4E
:1010D000E3CF1BCF0EF0D9C0D3CE6894CBCEFADECF
:1010E000C8F39923D1F3C6F3DF93CF931F930F93E4
:1010F000FF92C92FDD2788232AF02197660F771FDB
:10110000881FDAF720E030E040E85FEB9FE38839A2
:1011100020F0803E30F021968F77A3DDECE7F0E001
:1011200003C09FDDE9EAF0E073DF8B01BE01EC0153
:10113000FB2E6F5771097595771F880B990B5FDE32
:1011400028E132E741E35FE349D0AF2D9801AE01DA
:10115000FF900F911F91CF91DF9194DDA2CEFA0104
:10116000DC01AA0FBB1F9B01AC01BF5728F422274B
:101170003327442750781FC0B75188F4AB2F002481
:10118000469537952795011CA395D2F3002069F069
:10119000220F331F441FB395DAF30DD061CD6130B8
:1011A0007105A0E88A07B94630F49B01AC016627B7
:1011B000772788279078309621F0208331834283E7
:1011C000538308950BD06DCE5EDE28F063DE18F0F9
:1011D000952309F04FCE54CE112497CE73DEA0F3A1
:1011E000959FD1F3950F50E0551F629FF001729FBC
:1011F000BB27F00DB11D639FAA27F00DB11DAA1FDB
:10120000649F6627B00DA11D661F829F2227B00D27
:10121000A11D621F739FB00DA11D621F839FA00DB2
:10122000611D221F749F3327A00D611D231F849F02
:10123000600D211D822F762F6A2F11249F57504059
:101240008AF0E1F088234AF0EE0FFF1FBB1F661FF4
:10125000771F881F91505040A9F79E3F510570F0AD
:1012600009CE53CE5F3FECF3983EDCF3869577953D
:101270006795B795F795E7959F5FC1F7FE2B880FA8
:10128000911D9695879597F908959F3F31F091505C
:1012900020F4879577956795B795880F911D96955A
:1012A000879597F90895629FD001739FF001829FFF
:1012B000E00DF11D649FE00DF11D929FF00D839FE5
:1012C000F00D749FF00D659FF00D9927729FB00D82
:1012D000E11DF91F639FB00DE11DF91FBD01CF0195
:1012E00011240895A1E21A2EAA1BBB1BFD010DC0FB
:1012F000AA1FBB1FEE1FFF1FA217B307E407F507C6
:1013000020F0A21BB30BE40BF50B661F771F881FA1
:10131000991F1A9469F760957095809590959B0137
:10132000AC01BD01CF01089597FB092E05260ED013
:1013300057FD04D0D7DF0AD0001C38F450954095F3
:10134000309521953F4F4F4F5F4F0895F6F7909599
:101350008095709561957F4F8F4F9F4F0895EF92C5
:10136000FF920F931F93F22FF02E47FD02C0E4E08F
:1013700001C0E4E1242F332727FD309537FF03C058
:10138000309521953F4F4F2D512F0F2FEE2E0E945C
:10139000040A8F2D912F1F910F91FF90EF900895C8
:1013A000FA01CF93FF93EF93223044F1253234F5C5
:1013B000C22FE894CA3049F497FB3EF4909580958B
:1013C000709561957F4F8F4F9F4F2C2F3327442768
:1013D0005527FF93EF930E947209EF91FF91605D93
:1013E0006A330CF0695D6193B901CA0160507040C5
:1013F0008040904051F716F4CDE2C19310828F9156
:101400009F91CF910C943E0CA9E0B0E0EAE0FAE0A5
:101410000C94520C6A01122FA02EBE2C2BE3201725
:1014200018F42CE3922E02C0902E9394AE014F5FDD
:101430005F4F27E0092D0E94660BBC018981E82ED1
:10144000FF24C70189709070019711F4ADE209C0C3
:10145000B1FE02C0ABE205C0B0FC02C0A0E001C01A
:10146000A0E2E3FE3BC0AA2311F423E001C024E084
:10147000211710F020E002C0121B212FEB2CB4FE2C
:1014800002C0322F0AC0F601322F80E202C08193DF
:1014900031503323E1F7C20ED11CAA2319F0F60113
:1014A000A1936F01F6013196E2FE05C09EE4D601DC
:1014B0009C9381E404C09EE6D6019C9381E611963C
:1014C0008C9391833296DF01832F90E202C09D932B
:1014D00081508823E1F7E30FF11D40C0E2FE42C0D6
:1014E000AA2311F423E001C024E0211710F020E02A
:1014F00002C0121B212FEB2CB4FE02C0922F0AC097
:10150000F601922F80E202C0819391509923E1F776
:10151000C20ED11CAA2319F0F601A1936F01F601A6
:101520003196E2FE08C089E4D6018C938EE41196D0
:101530008C9386E407C089E6D6018C938EE61196DB
:101540008C9386E681833296DF01892F20E202C0E8
:101550002D9381508823E1F7E90FF11D10822EEFC2
:101560003FEFAFC0161617061CF041E050E003C075
:10157000AB014F5F5F4FAA2019F480E090E003C0F9
:101580008A2D90E0019620E030E0AA2311F021E0BE
:1015900030E0240F351F280F391F812F90E02817C6
:1015A000390714F020E002C0121B212F4B2D50E010
:1015B000CA0180719070B4FC0DC0B3FC0BC0F60181
:1015C000322F40E202C0419331503323E1F7C20E83
:1015D000D11C01C0322FAA2319F0F601A1936F018B
:1015E000892B11F0132F0AC0F601132F80E302C0DC
:1015F000819311501123E1F7C30ED11C092D060F61
:10160000BA8090E1892E912C8E209F20E4FE04C0A8
:10161000F1E3BF1609F40150101614F001E003C005
:10162000093008F008E09B0177FF02C020E030E0BD
:10163000CB010196821B930BFE013196E80FF91F37
:101640008EE2F82E3B01601A71088A2D90E0442743
:101650005527481B590B8FEF2F3F380719F4D60138
:10166000FD926D01621773072CF06216730614F475
:10167000808101C080E32150304031962417350726
:1016800024F0D6018D936D01E6CF2617370749F474
:10169000B5E3BB1528F0BB1621F48114910409F4BD
:1016A00081E3F6018193D601812F90E202C09C93E1
:1016B000815011968823D9F7E10FF11D108220E0A7
:1016C00030E0C9012996EEE00C946E0C283008F049
:1016D00027E03327DA01990F311D87FD91600096CD
:1016E0006105710539F432602E5F3D9330E32A9530
:1016F000E1F708959F3F30F080387105610509F0EA
:101700003C5F3C5F3D93913008F08068911DDF9312
:10171000CF931F930F93FF92EF92192F987F969577
:10172000E92F96959695E90FFF27E05DFE4F9927E3
:101730003327EE24FF24A701E701059008940794BE
:1017400028F4360FE71EF81E491F511D660F771F3C
:10175000881F991F0694A1F70590079428F4E70EB7
:10176000F81E491F561FC11D770F881F991F661F3E
:101770000694A1F70590079428F4F80E491F561F08
:10178000C71FD11D880F991F661F771F0694A1F7E9
:101790000590079420F4490F561FC71FD81F990FB3
:1017A000661F771F881F0694A9F7849110951770FC
:1017B00041F0D695C79557954795F794E7941A95B4
:1017C000C1F7E6EDF0E068941590159135916591BB
:1017D000959105907FE27395E118F10A430B560B42
:1017E000C90BD009C0F7E10CF11E431F561FC91FDA
:1017F000D01D7EF4703311F48A95E6CFE894015041
:1018000030F0080F0AF40027021708F4202F239560
:10181000022F7A3328F079E37D932A95E9F710C0F7
:101820007D932A9589F60694979567953795179530
:101830001794E118F10A430B560BC90BD00998F025
:1018400023957E9173957A3308F070E37C9320138F
:10185000B8F77E9170617D9330F0839571E37D934D
:1018600070E32A95E1F71124EF90FF900F911F91FB
:10187000CF91DF91992787FD90950895DC01FC01B8
:10188000672F71917723E1F7329704C07C916D93B4
:1018900070836291AE17BF07C8F308952F923F92ED
:1018A0004F925F926F927F928F929F92AF92BF9270
:1018B000CF92DF92EF92FF920F931F93CF93DF931C
:1018C000CDB7DEB7CA1BDB0B0FB6F894DEBF0FBE79
:1018D000CDBF09942A88398848885F846E847D84C6
:1018E0008C849B84AA84B984C884DF80EE80FD80C8
:1018F0000C811B81AA81B981CE0FD11D0FB6F8943E
:0E190000DEBF0FBECDBFED010895F894FFCFFE
:02190E000A00CD
:00000001FF
