:100000000C9456000C9473000C9473000C947300C1
:100010000C9473000C9473000C9473000C94730094
:100020000C9473000C9473000C9473000C94730084
:100030000C9473000C9475000C94A1000C94730044
:100040000C9473000C9473000C9473000C94730064
:100050000C947300427566666572206F76657266F1
:100060006C6F77206572726F723A2000554152545E
:10007000204F76657272756E204572726F723A20EB
:100080000055415254204672616D65204572726F71
:10009000723A2000537472696E672073746F7265D0
:1000A0006420696E20464C4153480A0011241FBE4B
:1000B000CFE5D8E0DEBFCDBF10E0A0E6B0E0ECE4D5
:1000C000F3E002C005900D92A837B107D9F710E010
:1000D000A8E7B0E001C01D92AD3BB107E1F70E9477
:1000E0001F010C94A4010C9400001F920F920FB6F4
:1000F0000F9211242F938F939F93EF93FF938BB1C4
:100100009CB18871E0917A00EF5FEF7120917900E6
:10011000E21739F0E0937A00F0E0E358FF4F908364
:1001200001C082E090917800982B90937800FF9125
:10013000EF919F918F912F910F900FBE0F901F9075
:1001400018951F920F920FB60F9211248F939F93C1
:10015000EF93FF9390917C0080917B00981761F062
:10016000E0917B00EF5FEF71E0937B00F0E0E356FE
:10017000FF4F80818CB901C05598FF91EF919F91FD
:100180008F910F900FBE0F901F90189510927C00CA
:1001900010927B0010927A001092790097FF03C0B2
:1001A00022E02BB99F7790BD89B988E98AB986E8A2
:1001B00080BD089590917A0080917900981781F020
:1001C000E0917900EF5FEF71E0937900F0E0E358A0
:1001D000FF4F8081909178001092780090E0089510
:1001E00080E091E0089590917C009F5F9F71209145
:1001F0007B009217E1F3E92FF0E0E356FF4F808395
:1002000090937C00559A0895CF93DF93EC018991E8
:10021000882319F00E94F300FACFDF91CF9108955F
:10022000CF93DF93FC018491EF012196882321F085
:100230000E94F300FE01F7CFDF91CF910895CF9395
:10024000DF93CDB7DEB727970FB6F894DEBF0FBEAA
:10025000CDBF87E690E00E94C600789480E690E0EB
:100260000E94040184E990E00E9410014AE050E0FD
:10027000BE016F5F7F4F86E890E00E945F01CE0174
:1002800001960E9404018DE00E94F3000E94DA00B2
:100290008C0190FDFBCF94FF04C081E890E00E94A8
:1002A000100113FF04C08CE690E00E94100111FFC2
:1002B00004C084E590E00E941001802FE5CFFB018F
:1002C0009F01E8944230C4F04532B4F44A3029F436
:1002D00097FB1EF4909581959F4F642F77270E947E
:1002E0009001805D8A330CF0895D8193CB0100978A
:1002F000A1F716F45DE251931082C9010C948001BC
:10030000DC01FC01672F71917723E1F7329704C07C
:100310007C916D9370836291AE17BF07C8F3089507
:10032000AA1BBB1B51E107C0AA1FBB1FA617B7071B
:1003300010F0A61BB70B881F991F5A95A9F7809537
:0C0340009095BC01CD010895F894FFCF0A
:10034C00537472696E672073746F72656420696E82
:08035C00205352414D0A00003C
:00000001FF
