:100000000C942A000C9447000C9447000C94470071
:100010000C9447000C9447000C9447000C94470044
:100020000C9447000C9447000C9447000C94470034
:100030000C9447000C9447000C9447000C94470024
:100040000C9447000C9447000C9447000C94470014
:100050000C94470011241FBECFE5D8E0DEBFCDBF12
:1000600010E0A0E6B0E0ECE9F1E002C005900D92EE
:10007000AE36B107D9F710E0AEE6B0E001C01D9290
:10008000A037B107E1F70E94A8000C94CC000C94B3
:1000900000008FEF84BB80EF8ABB81B38B6F81BB85
:1000A00086E886B980EC87B90895CF93DF939C01E9
:1000B000EAE0F0E0BF010E94B80080936000C9014F
:1000C00064E670E00E94B800EB01BF010E94B80036
:1000D00060936100CE01BF010E94B800809362006E
:1000E000C90168EE73E00E94B80060936300DF917D
:1000F000CF91089540E050E061E070E04817590763
:1001000031F124E030E0273019F4E091630004C0BD
:10011000F901E45AFF4FE081F0E0EC59FF4FE08134
:10012000E5BBFB01022E01C0EE0F0A94EAF7EBBB20
:10013000EFECF7E03197F1F700C000001BBA2F5F3A
:100140003F4F28303105F9F64F5F5F4FD7CF089505
:100150000E944900369A3699FECF84B125B190E0CD
:10016000922B0E94550081E090E00E947A00F2CF2D
:10017000AA1BBB1B51E107C0AA1FBB1FA617B707CD
:1001800010F0A61BB70B881F991F5A95A9F78095E9
:0C0190009095BC01CD010895F894FFCFBC
:0E019C00010203043F065B4F666D7D077F6F17
:00000001FF
