:100000000C942A000C943F000C943F000C943F0089
:100010000C943F000C943F000C943F000C943F0064
:100020000C943F000C943F000C943F000C943F0054
:100030000C943F000C943F000C943F000C943F0044
:100040000C943F000C943F000C943F000C943F0034
:100050000C943F0011241FBECFE5D8E0DEBFCDBF1A
:1000600010E0A0E6B0E0E2ECF1E002C005900D92F5
:10007000AE36B107D9F70E94A0000C94DF000C94B3
:1000800000008FEF84BB88EF8ABB81B38B6F81BB8D
:1000900086E886B980EC87B90895CF93DF939C01F9
:1000A000EAE0F0E0BF010E94B70080936000C90160
:1000B00064E670E00E94B700EB01BF010E94B70048
:1000C00060936100CE01BF010E94B700809362007F
:1000D000C90168EE73E00E94B70060936300DF918E
:1000E000CF91089540E050E061E070E04817590773
:1000F00031F124E030E0273019F4E091630004C0CE
:10010000F901E45AFF4FE081F0E0EC59FF4FE08144
:10011000E5BBFB01022E01C0EE0F0A94EAF7EBBB30
:10012000EFECF7E03197F1F700C000001BBA2F5F4A
:100130003F4F28303105F9F64F5F5F4FD7CF089515
:100140000E9441007894CFEFD3E0369A3699FECFE3
:1001500084B195B1982F80E0BE010E94CB00CB0105
:100160000E944D0081E090E00E947200EECFAA1B39
:10017000BB1B51E107C0AA1FBB1FA617B70710F092
:10018000A61BB70B881F991F5A95A9F780959095C4
:10019000BC01CD01089597FB072E16F4009407D0FB
:1001A00077FD09D00E94B70007FC05D03EF490957A
:1001B00081959F4F0895709561957F4F0895F894AC
:0201C000FFCF6F
:0E01C200010203043F065B4F666D7D077F6FF1
:00000001FF
