:100000000C942A000C94B0000C94BF000C94470090
:100010000C9447000C9447000C9447000C94470044
:100020000C9447000C9447000C945E000C9447001D
:100030000C9447000C9447000C9447000C94470024
:100040000C9447000C9447000C9447000C94470014
:100050000C94470011241FBECFE5D8E0DEBFCDBF12
:1000600010E0A0E6B0E0EEE8F2E002C005900D92EC
:10007000A237B107D9F710E0A2E7B0E001C01D92A6
:10008000A737B107E1F70E9423010C9445010C94B6
:1000900000008FEF84BB88EF8ABB81B38B6F81BB7D
:1000A00088E08BBB8AE883BF89EF8CBF89B7826009
:1000B00089BF8FE085BF80EC8BBF08951F920F92A0
:1000C0000FB60F9211242F933F934F935F936F932B
:1000D0008F939F9380917200882319F18091600023
:1000E00081508093600081111CC084E08093600087
:1000F00080917300909174000196909374008093A6
:100100007300883E934069F410927400109273005B
:10011000809175008F5F809375008A3011F4109282
:10012000750060917500209173003091740048EE65
:1001300053E0649FC001659F900D1124820F931FAF
:1001400090936200809361009F918F916F915F9176
:100150004F913F912F910F900FBE0F901F901895C8
:100160001F920F920FB60F9211248F9381E080930C
:1001700072008F910F900FBE0F901F9018951F92D5
:100180000F920FB60F921124109272000F900FBEB3
:100190000F901F901895CF93DF939C01EAE0F0E059
:1001A000BF010E94310180936300C90164E670E0E1
:1001B0000E943101EB01BF010E9431016093640094
:1001C000CE01BF010E94310180936500C90168EE34
:1001D00073E00E94310160936600DF91CF91089532
:1001E00040E050E061E070E04817590759F124E021
:1001F00030E0273041F4E0916600F0E0E959FF4F2C
:10020000E081E05808C0F901E15AFF4FE081F0E0D9
:10021000E959FF4FE081E5BBFB01022E01C0EE0F63
:100220000A94EAF7EBBBEFECF7E03197F1F700C087
:1002300000001BBA2F5F3F4F28303105D1F64F5FCA
:100240005F4FD2CF08950E94490078948091610059
:10025000909162000E94CB0081E090E00E94F0004B
:10026000F5CFAA1BBB1B51E107C0AA1FBB1FA617D6
:10027000B70710F0A61BB70B881F991F5A95A9F74F
:0E02800080959095BC01CD010895F894FFCFB4
:10028E00042808010203043F065B4F666D7D077F5D
:02029E006F00EF
:00000001FF
