:100000000C948B020C94A8020C94A8020C94A802E5
:100010000C94A8020C94A8020C94A8020C94A802B8
:100020000C94A8020C94A8020C94A8020C94A802A8
:100030000C94A8020C94A8020C94A8020C94A80298
:100040000C94A8020C94A8020C94A8020C94A80288
:100050000C94A802D710DA10DD10E010E310E610BF
:10006000E9100A0D0A0D20496E76616C6964206FF3
:100070007074696F6E210A0D0046696C6520646FAB
:100080006573206E6F742065786973742E2E00205E
:1000900066696C65206E616D6520746F6F206C6F92
:1000A0006E672E2E000A0D456E7465722066696CAF
:1000B00065206E616D653A20000A0D4E6F726D61AC
:1000C0006C206F7065726174696F6E2073746172F9
:1000D0007465642E2E000A0D0A0D3E20456E74656F
:1000E0007220746865206F7074696F6E3A000A0D33
:1000F0003E2036203A2044656C6574652046696C64
:1001000065000A0D3E2035203A2052656164204684
:10011000696C65000A0D3E2034203A204765742042
:1001200066696C65206C697374000A0D3E2033208B
:100130003A205570646174652054696D65000A0D3C
:100140003E2032203A205570646174652044617409
:1001500065000A0D3E2031203A20446973706C61BD
:10016000792063757272656E7420446174652F54D2
:10017000696D65000A0D0A0D3E2030203A20457851
:10018000697420746865204D656E75000A0D4641DE
:10019000543332206E6F7420666F756E6421005583
:1001A0006E6B6E6F776E20534420436172642044FF
:1001B0006574656374656421005374616E64617273
:1001C00064204361706163697479204361726420C3
:1001D0002856657220322E78292044657465637430
:1001E00065642100486967682043617061636974D0
:1001F0007920436172642044657465637465642189
:10020000005374616E64617264204361706163695C
:1002100074792043617264202856657220312E78EB
:1002200029204465746563746564210043617264C8
:1002300020496E697469616C697A6174696F6E20B6
:100240006661696C65642E2E00534420636172649C
:10025000206E6F742064657465637465642E2E006F
:100260000A0D2A2A2A2A2A2A2A2A2A2A2A2A2A2A2B
:100270002A2A2A2A2A2A2A2A2A2A2A2A2A2A2A2ADE
:100280002A2A2A2A2A2A2A2A2A2A2A2A2A2A2A2ACE
:100290002A2A2A2A2A2A0A0D000A0D202020202094
:1002A000202020206D6963726F5344204461746183
:1002B0006C6F67676572202D20627920434320446C
:1002C0006861726D616E6920000A0D0A0D2A2A2A82
:1002D0002A2A2A2A2A2A2A2A2A2A2A2A2A2A2A2A7E
:1002E0002A2A2A2A2A2A2A2A2A2A2A2A2A2A2A2A6E
:1002F0002A2A2A2A2A2A2A2A2A2A2A2A2A2A2A2A5E
:100300002A004572726F7220696E20676574746985
:100310006E6720636C757374657200456E64206F40
:100320006620436C757374657220436861696E0062
:10033000204E6F206672656520636C7573746572FC
:100340002100204E6F206672656520636C757374A2
:1003500065722100496E76616C69642066696C651E
:100360004E616D652E2E004572726F7220696E208F
:1003700067657474696E6720636C75737465720069
:100380004572726F7220696E2067657474696E675A
:1003900020636C757374657200524F4F540044496A
:1003A00052002020200046494C45002020200046D5
:1003B000696C652064656C65746564210044656CD6
:1003C0006574696E672E2E0046696C6520646F65E2
:1003D00073206E6F742065786973742100496E769E
:1003E000616C696420456E7472792E2E00446174CC
:1003F0006520557064617465204661696C65642E82
:100400002E004461746520557064617465642073C6
:10041000756365737366756C6C792100456E7465E0
:100420007220446179202853756E6461793A302CCA
:10043000204D6F6E6461793A312E2E2E292028309E
:100440002D36293A00456E7465722044617465202A
:100450002864642F6D6D2F7979293A00496E766191
:100460006C696420456E7472792E2E0054696D6536
:1004700020557064617465204661696C65642E2E38
:100480000054696D652055706461746564207375EE
:100490006365737366756C6C792100456E74657263
:1004A0002054696D6520696E2032346820666F7251
:1004B0006D61742868683A6D6D3A7373293A005516
:1004C0006E6B6E6F776E0053617475726461790044
:1004D0004672696461790054687572736461790069
:1004E0005765646E65736461790054756573646102
:1004F00079004D6F6E6461790053756E64617900A7
:10050000202020204461793A2000446174653A003B
:1005100054696D653A0011241FBECFE5D8E0DEBFF7
:10052000CDBF10E0A0E6B0E0E2EEFDE202C0059033
:100530000D92A038B107D9F713E0A0E8B0E001C0F0
:100540001D92A334B107E1F70E94D8020C94EF1674
:100550000C9400001BBA1ABA18BA8FEB87BB80E85C
:1005600085BB80E284BB12BA11BA089528EC30E052
:10057000AE9A80EA9FE0F9013197F1F70197D9F738
:10058000AE9880EA9FE0F9013197F1F70197D9F72A
:10059000EFCFF8940E94AA020E94F2140E94940FD6
:1005A0000E9401150E94D20415BE1BBE19BE0895FB
:1005B0002F923F924F925F926F927F928F929F9273
:1005C000AF92BF92CF92DF92EF92FF920F931F9361
:1005D000DF93CF93CDB7DEB72E970FB6F894DEBF7B
:1005E0000FBECDBF88EE93E028EC30E0F9013197E3
:1005F000F1F70197D9F70E94C902AE9889EC92E011
:100600000E94141589E992E00E94141580E692E098
:100610000E9414151092310310E00E946C1488237C
:1006200081F01F5F1A30C9F7813019F489E492E034
:1006300004C0823021F48CE292E00E9414150E94E2
:10064000B60280913103823039F0833041F081303D
:1006500049F481E092E008C084EE91E005C089EBA6
:1006600091E002C08FE991E00E9414150E943408C5
:10067000882331F08CE891E00E9414150E94B602A4
:1006800080E58DB9709A80ED97E00197F1F79F9919
:10069000AEC06E010894C11CD11CEEE0AE2EB12C90
:1006A000AC0EBD1E84E791E00E94141582E591E036
:1006B0000E9414158EE391E00E9414158AE291E0E5
:1006C0000E94141584E191E00E94141582E091E0EB
:1006D0000E9414158EEE90E00E94141586ED90E0B5
:1006E0000E9414150E940B15F82E0E94101583E32A
:1006F000F81609F18F1550F081E3F816A1F08F1567
:10070000B8F080E3F81609F06DC008C084E3F8166D
:10071000A9F086E38F1508F465C01CC089EB90E052
:100720000E9414153DC10E94F0100E94B210BACF71
:100730000E942E12B7CF0E94A711B4CF8DE00E9465
:1007400010158AE00E94101580E060E070E00E94C1
:100750009709A8CF85EA90E00E941415F60111923E
:10076000EA15FB05E1F700E00E940B15182F8D300C
:10077000F9F0883069F40023B9F388E00E9410157D
:1007800080E20E94101588E00E9410150150ECCF05
:1007900080528F3548F7812F0E941015F601E00F27
:1007A000F11D10830F5F0D30F9F68FE890E01CC04B
:1007B0000D3008F077CF8DE00E9410158AE00E947E
:1007C000101585E3F81651F480E0B6010E94910BF4
:1007D000813009F067CF89E790E006C0C6010E942A
:1007E000830B60CF82E690E00E9414155BCF28EC6B
:1007F00030E09F99FECF80E991E0F9013197F1F760
:100800000197D9F79F99F5CF9F9BFECF80E991E0A3
:1008100028EC30E0F9013197F1F70197D9F7AE9A5A
:100820005E010894A11CB11C79E0472E512C4C0E9E
:100830005D1E63E5262E56E5352E4CE2D42E3DE0B6
:10084000E32E2AE0C22E90E2692E9EE4792E88ECF7
:10085000882E912C0E947810882311F00E94B602F5
:10086000D50190E0E92FF0E0ED5CFC4F80818C93A6
:100870009F5F923011F0953009F49F5F1196A41597
:10088000B50581F78EE2898783E48A872B863C86CB
:100890000E944010882311F00E94B60220E030E050
:1008A000F901ED5CFC4F8081F901E353FD4F80833A
:1008B0002F5F3F4F2A30310599F7D092D7022BE0B6
:1008C00030E0F901EB54FD4F8081F901E353FD4F16
:1008D00080832F5F3F4F2331310599F7D092E0029B
:1008E00080E00E94FA0424E130E0F901E957FF4F6B
:1008F0008081F901E353FD4F80832F5F3F4F2B3100
:10090000310599F791E00BE110E0F801E353FD4F59
:10091000D082F02EF394892F9E870E945405A8EA76
:10092000B0E09E85EF2DF0E08D91E353FD4F808385
:10093000F39480E0AF3AB807A9F79F5F085F1F4FB5
:10094000983019F7E0922003C0922103C5010E945C
:10095000670C882311F00E94B60220E030E0C3014A
:100960000197F1F79F9915C080E991E0F401319763
:10097000F1F70197D9F79F990CC09F9BFECF80E9B3
:1009800091E028EC30E0F9013197F1F70197D9F7C0
:1009900007C02F5F3F4F2436310509F45BCFDFCF0F
:1009A000AE9825CF16B880E487B982E886B9379A21
:1009B000089560E040E050E0369A349BFECF349AD0
:1009C00094B185B1382F20E0F901E90FF11D4E0FE8
:1009D0005F1F6F5F683081F79A0183E03695279536
:1009E0008A95E1F7F4E020303F0710F02FEF33E075
:1009F000C90108950F931F93806487B90E94D90499
:100A0000A0E0B0E0BC01CD010E94981520E030E0EC
:100A100040EA50E40E94FE1520E030E040E85AE34E
:100A20000E94FE1520E030E04AE754E40E94FE15E3
:100A30000E946C158B019C0183E48093A10080EBE4
:100A40008093A000C8016AE070E00E94991680635C
:100A500080939F008EE280939E00C8016AE070E060
:100A60000E9499169B01CB016AE070E00E949916E2
:100A7000806380939D00C9016AE070E00E9499162E
:100A80009B01CB016AE070E00E949916806380931D
:100A90009C00C9016AE070E00E949916606360934F
:100AA0009B001F910F9108950F931F93806487B946
:100AB0000E94D904A0E0B0E0BC01CD010E949815CD
:100AC00020E030E040EA50E40E94FE1520E030E0F3
:100AD00040E85AE30E94FE1520E030E04AE754E483
:100AE0000E94FE150E946C158B019C0186E5809387
:100AF000AE0080E28093AD00C8016AE070E00E9421
:100B0000991680638093AC00C8016AE070E00E948F
:100B100099169B01CB016AE070E00E9499168063F0
:100B20008093AB00C9016AE070E00E9499169B01B6
:100B3000CB016AE070E00E94991680638093AA005E
:100B40008EE28093A900C9016AE070E00E949916C4
:100B500060636093A8001F910F910895EF92FF9238
:100B60000F931F932091B3023091B402E0908D0057
:100B7000F0908E0000918F001091900062507040B4
:100B80008040904040E050E00E9489169B01AC01FB
:100B90002E0D3F1D401F511FB901CA011F910F911A
:100BA000FF90EF9008958F929F92AF92BF92CF9255
:100BB000DF92EF92FF920F93DF93CF93CDB7DEB723
:100BC00064970FB6F894DEBF0FBECDBF982E6A01B2
:100BD0007B01DE011196E0E6F0E084E101900D92E8
:100BE0008150E1F70CE08CE2882E053011F00930DD
:100BF00029F4FE01E00FF11D808201505E01A00E7C
:100C0000B11CC701B6012AE030E040E050E00E948C
:100C1000AD166063F5016083C701B6012AE030E0DC
:100C200040E050E00E94AD16C901DA016C017D017F
:100C3000C114D104E104F10411F00150B1F6F1E066
:100C40009F1611F48BE48E87CE0101960E941E152B
:100C500064960FB6F894DEBF0FBECDBFCF91DF9183
:100C60000F91FF90EF90DF90CF90BF90AF909F904B
:100C70008F9008956F927F928F929F92AF92BF92C2
:100C8000CF92DF92EF92FF920F931F9360783B0118
:100C90004C0122E0660C771C881C991C2A95D1F720
:100CA0005B016C0150C0E090BE02F090BF02209149
:100CB00095003091960000E010E08091B50290918F
:100CC000B602A091B702B091B802E80EF91E0A1F51
:100CD0001B1F40E050E0C401B3010E94AD16E20EBC
:100CE000F31E041F151FC801B7010E943B1460E0EA
:100CF000E62FF0E0EE0FFF1FEE0FFF1FED54FF4F4A
:100D000080819181A281B381BF700097A105B10557
:100D100039F4A6019501260F311D411D511D25C035
:100D20006F5F603829F780E890E0A0E0B0E0A80E9F
:100D3000B91ECA1EDB1E80E092E0A0E0B0E0680EA3
:100D4000791E8A1E9B1E8091970090919800A09119
:100D50009900B0919A00A816B906CA06DB0608F4F5
:100D6000A2CF20E030E040E050E0B901CA011F917D
:100D70000F91FF90EF90DF90CF90BF90AF909F903A
:100D80008F907F906F9008950F931F93DF93CF9371
:100D9000CDB7DEB72B970FB6F894DEBF0FBECDBF31
:100DA0008C01582FA12FFC0140E080818E3219F474
:100DB000493030F00EC04F5F31964C30B1F709C06A
:100DC000BE016F5F7F4F852F9A2F9C01F901DB01D8
:100DD00008C084E593E00E94141581E052C081911F
:100DE0008D938E2F851B8417D0F3842F9E012F5F48
:100DF0003F4F90E205C0F901E80FF11D90838F5F2E
:100E00008830C9F7242F2F5FAE014F5F5F4F30E26C
:100E1000F801E20FF11D9081992359F0FA01E80FD2
:100E2000F11D90832F5F07C0FA01E80FF11D308399
:100E30008F5F8B30C8F38F5F8B3050F39E01245F40
:100E40003F4FFB019081892F81568A3110F49052D7
:100E500090836F5F7F4F6217730799F720E030E050
:100E6000AE014F5F5F4FF801E20FF31FDA01A20FEF
:100E7000B31F8C9180832F5F3F4F2B30310599F743
:100E800080E02B960FB6F894DEBF0FBECDBFCF919A
:100E9000DF911F910F910895CF92DF92EF92FF9211
:100EA0000F931F93D82EC62E79018A016091B50247
:100EB0007091B6028091B7029091B8026F5F7F4F38
:100EC0008F4F9F4F0E943B148091B3009091B400CC
:100ED000A091B500B091B60082559245A146B144AB
:100EE00009F054C08091970290919802A0919902C4
:100EF000B0919A0282579247A144B14609F046C088
:100F00008091AF029091B002A091B102B091B20273
:100F100080509040A545BA4AC9F5CC20A9F481E09B
:100F2000D81649F420919B0230919C0240919D0279
:100F300050919E022FC020919F023091A0024091BB
:100F4000A1025091A20226C021E0D21649F4E092FB
:100F50009B02F0929C0200939D0210939E0208C097
:100F6000E0929F02F092A0020093A1021093A202CD
:100F70006091B5027091B6028091B7029091B8026B
:100F80006F5F7F4F8F4F9F4F0E94ED132FEF3FEF0B
:100F90004FEF5FEFB901CA011F910F91FF90EF90E2
:100FA000DF90CF900895DF92EF92FF920F931F93FF
:100FB000D82EDB01CA01E9E0B695A79597958795EC
:100FC000EA95D1F751706070707041155105610557
:100FD000710519F4AC01BD0106C0AC01BD014F5F44
:100FE0005F4F6F4F7F4FDB01CA0133E0B695A79586
:100FF000979587953A95D1F74770507060707070EB
:10100000411551056105710519F47C018D0107C079
:101010007C018D010894E11CF11C011D111D8091C2
:101020003E038823D9F081E060E020E030E040E03A
:1010300050E00E944C07DD2039F49B01AC012E0DDD
:101040003F1D401F511F06C09B01AC012E193F09D7
:10105000400B510B81E061E00E944C071F910F9102
:10106000FF90EF90DF9008956F927F928F929F9202
:10107000AF92BF92CF92DF92EF92FF920F931F93A6
:101080001092B5021092B6021092B7021092B802F6
:1010900060E070E080E090E00E943B148091B3003B
:1010A000893E19F18B3E09F18091B1029091B20213
:1010B00085559A4A09F0B0C06091790270917A0220
:1010C00080917B0290917C026093B5027093B6028E
:1010D0008093B7029093B8020E943B148091B300B2
:1010E000893E19F08B3E09F097C08091BE00909127
:1010F000BF0090939600809395008091C00090E08F
:101100009093B4028093B302A090C100B090C2004B
:10111000B092BF02A092BE028091DF009091E000E9
:10112000A091E100B091E2008093A2009093A3000F
:10113000A093A400B093A500E090BE02F090BF027F
:101140006091C30070E080E090E02091D700309182
:10115000D8004091D9005091DA000E9489163B01D5
:101160004C0100E010E08091CF009091D000A09160
:10117000D100B091D200E80EF91E0A1F1B1FE60C29
:10118000F71C081D191DE0928D00F0928E0000934F
:101190008F00109390002091B3023091B402CC24C0
:1011A000DD246091D3007091D4008091D50090919E
:1011B000D6006A197B098C099D0966197709880987
:1011C000990940E050E00E94AD16C901DA01809310
:1011D000970090939800A0939900B0939A0081E0B3
:1011E00060E020E030E040E050E00E944C072091B9
:1011F0009700309198004091990050919A002617DD
:1012000037074807590718F410923E0303C081E0DE
:1012100080933E0380E001C081E01F910F91FF9019
:10122000EF90DF90CF90BF90AF909F908F907F9086
:101230006F9008954F925F926F927F928F929F92DC
:10124000AF92BF92CF92DF92EF92FF920F931F93D4
:10125000CF93DF935B016C01842E280139018091CB
:10126000BE029091BF02F2E0AA0CBB1CCC1CDD1C9C
:10127000FA95D1F720919500309196007C0100E01D
:1012800010E08091B5029091B602A091B702B091A2
:10129000B802E80EF91E0A1F1B1F40E050E0C6010D
:1012A000B5010E94AD16E20EF31E041F151FC0917A
:1012B0009500D09196009924C801B7010E943B1473
:1012C000882321F093948AE09816B1F79E0140E0BC
:1012D00050E0C601B5010E94AD16FB01ED54FF4F71
:1012E000882031F420813181428153815F700CC0AC
:1012F0004082518262827382C801B7010E94ED135D
:1013000020E030E040E050E0B901CA01DF91CF9128
:101310001F910F91FF90EF90DF90CF90BF90AF9013
:101320009F908F907F906F905F904F9008952F9235
:101330003F924F925F926F927F928F929F92AF9265
:10134000BF92CF92DF92EF92FF920F931F93DF93A2
:10135000CF93CDB7DEB72A970FB6F894DEBF0FBE96
:10136000CDBF8D837F836E83A090A200B090A30039
:10137000C090A400D090A500815088872091B3022E
:101380003091B402E0908D00F0908E0000918F00BB
:1013900010919000C601B5016250704080409040AD
:1013A00040E050E00E9489161B012C012E0C3F1CCE
:1013B000401E511E6624772443015FC1D401C3013E
:1013C000820D931DA41DB51D89839A83AB83BC83B5
:1013D000BC01CD010E943B1440E2E42EF12C3DC142
:1013E0008A010D541F4FF701ED54FF4FB0978081D4
:1013F000B096882339F49D81923009F068C188EC59
:1014000093E063C1853E09F424C1759780818F30D4
:1014100009F41FC1A885A23008F0D2C020E030E056
:10142000C801820F931FAE81BF81A20FB31FFC01C1
:1014300090818C91981709F00CC1822F8F5F2F5FDC
:101440003F4F2B30310561F78B3009F002C1FD8130
:10145000F13009F03FC089819A81AB81BC818093D2
:101460003F0390934003A0934103B0934203CA010A
:10147000A0E0B0E08093870090938800A09389005B
:10148000B0938A00D80154968D919C915597A0E015
:10149000B0E0DC0199278827F801228D338D40E0E8
:1014A00050E0822B932BA42BB52B8093C9029093F1
:1014B000CA02A093CB02B093CC02848D958DA68DE9
:1014C000B78D8093910090939200A0939300B09376
:1014D0009400FFC08DE00E9410158AE00E94101554
:1014E0008DEB93E00E9414158DE00E9410158AE0A8
:1014F0000E9410158DE00E9410158AE00E941015C0
:10150000D80154968D919C915597A0E0B0E05C0174
:1015100099248824F801828D938DA0E0B0E0882A78
:10152000992AAA2ABB2A85EE808369817A818B81D8
:101530009C810E94ED13D8015C964D915D916D9157
:101540007C915F9780E00E94D30782E060E020E01A
:1015500030E040E050E00E944C0786169706A8064F
:10156000B90630F482E061E0A50194010E944C07C5
:10157000C501B40140E000E010E020E030E00E944E
:101580001A09F62EE72ED82EC92EC501B40141E066
:1015900000E010E020E030E00E941A098F2D9E2D1F
:1015A000AD2DBC2D4C015D01B7EF8B16BFEF9B0637
:1015B000BFEFAB06BFE0BB06D8F28FEA93E085C071
:1015C0008DE00E9410158AE00E9410151A86198677
:1015D0000BC0E985E73019F480E20E941015898577
:1015E0009A8501969A878987E985FA85E00FF11F28
:1015F00080810E941015A985BA851A9751F78BEA48
:1016000093E00E94141587010D541F4F055110409F
:10161000F80180810B5E1F4F8031B9F0883019F4DA
:1016200089E993E014C086EA93E00E94141582EAE7
:1016300093E00E941415F801349740815181628132
:10164000738180E00E94D30504C08EE993E00E947C
:10165000141580E290E0E80EF91EA70140525040B8
:1016600080919500909196004817590708F4B8CEDC
:101670000894611C711C811C911C8091B302909193
:10168000B402A0E0B0E0681679068A069B0608F46A
:1016900095CEC601B50140E000E010E020E030E06A
:1016A0000E941A095B016C0197EFA9169FEFB9061A
:1016B0009FEFC9069FE0D90650F4A114B104C104FC
:1016C000D10409F05BCE80E893E00E94141500E09D
:1016D00010E0C8012A960FB6F894DEBF0FBECDBF4A
:1016E000CF91DF911F910F91FF90EF90DF90CF90FE
:1016F000BF90AF909F908F907F906F905F904F9032
:101700003F902F900895CF93DF93EC010E94C40681
:10171000882321F482E0BE010E949709DF91CF91D6
:1017200008952F923F924F925F926F927F928F9285
:101730009F92AF92BF92CF92DF92EF92FF920F9360
:101740001F93DF93CF9300D000D0CDB7DEB7E82E44
:101750008B01CB010E94C406882311F082E0A0C057
:1017600081E0B8010E9497099C01009731F480E064
:10177000EE2009F095C081E093C081E0E81609F4FD
:101780008FC0D90154968D919C915597A0E0B0E0FF
:101790004C0177246624F901828D938DA0E0B0E09E
:1017A000682A792A8A2A9B2AD9015C968D919D9173
:1017B0000D90BC91A02D89839A83AB83BC838DE06F
:1017C0000E9410158AE00E9410158DE00E941015ED
:1017D0008AE00E9410152224332421012091B302B3
:1017E0003091B402E0908D00F0908E0000918F0057
:1017F00010919000C401B30162507040804090404D
:1018000040E050E00E9489165B016C01AE0CBF1CE9
:10181000C01ED11EEE2425C0C601B5016E0D711D7E
:10182000811D911D0E943B1400E010E0F801ED5471
:10183000FF4F80810E94101589819A81AB81BC8104
:10184000281639064A065B0650F50894211C311CFF
:10185000411C511C0F5F1F4F92E00030190731F7F8
:10186000E3942091B3023091B4028E2D90E0821760
:10187000930790F2C401B30140E000E010E020E0E3
:1018800030E00E941A093B014C0161157105810588
:10189000910509F0A3CF87E693E00E94141580E03C
:1018A0000F900F900F900F90CF91DF911F910F919C
:1018B000FF90EF90DF90CF90BF90AF909F908F9070
:1018C0007F906F905F904F903F902F9008952F9250
:1018D0003F924F925F926F927F928F929F92AF92C0
:1018E000BF92CF92DF92EF92FF920F931F93DF93FD
:1018F000CF93CDB7DEB727970FB6F894DEBF0FBEF4
:10190000CDBF9D838C8381E06C817D810E94910B92
:10191000813009F056C06090C9027090CA02809070
:10192000CB029090CC02AA24BB246501C401B30170
:1019300040E000E010E020E030E00E941A096F3F34
:101940002FEF72072FEF82072FE0920741F00894E4
:10195000A11CB11CC11CD11C3B014C01E7CF209143
:10196000B3023091B4026091950070919600E090BE
:101970009500F090960080E090E040E050E00E94FA
:101980008916A60195010E9489169B01AC01609100
:101990009100709192008091930090919400621B4D
:1019A000730B840B950B00E010E0A80197010E94D7
:1019B000AD16A22E1A82198221E02B831F821E826D
:1019C0004FC0823009F496C282E060E020E030E04F
:1019D00040E050E00E944C079B01AC0180919700D1
:1019E00090919800A0919900B0919A008217930766
:1019F000A407B50740F42091A2003091A3004091C4
:101A0000A4005091A500CA01B9010E943A063B0109
:101A10004C01611571058105910549F48DE00E9425
:101A200010158AE00E94101582E493E061C241E043
:101A30000FEF1FEF2FEF3FE00E941A09C401AA2702
:101A4000BB279F838E837A826982109291001092C5
:101A50009200109293001092940020E01B82AA241E
:101A6000BB242A2C332444245524C401B3016250DE
:101A70007040804090402223E1F12091B3023091E8
:101A8000B402E0908D00F0908E0000918F001091D4
:101A90009000E20CF31C041D151D40E050E00E9474
:101AA0008916E60EF71E081F191FE092AF00F0928C
:101AB000B0000093B1001093B2006091AF0070913C
:101AC000B0008091B1009091B2000E943B1420912F
:101AD00095003091960040E050E060919100709147
:101AE000920080919300909194000E94AD160A2D6F
:101AF0001FC02091B3023091B402E0908D00F090AD
:101B00008E0000918F001091900040E050E00E9404
:101B10008916E60EF71E081F191FE092AF00F0921B
:101B2000B0000093B1001093B20000E060E070E0FC
:101B3000EB2DF0E0E353FD4F1081B394FB01ED5426
:101B4000FF4F10836F5F7F4F8091910090919200C3
:101B5000A0919300B09194000196A11DB11D8093B6
:101B6000910090939200A0939300B093940082E030
:101B70006030780748F16091AF007091B0008091BB
:101B8000B1009091B2000E94ED130F5F2091B3025B
:101B90003091B402802F90E082179307E1F080919A
:101BA000AF009091B000A091B100B091B200019649
:101BB000A11DB11D8093AF009093B000A093B10020
:101BC000B093B20060E070E01A3071F093E69B15BC
:101BD00008F0AECF09C01A3019F460E070E004C01C
:101BE000A3E6AB1500F5F9CFFB01ED54FF4F1082D2
:101BF0006F5F7F4FB2E060307B07B0F36091AF0062
:101C00007091B0008091B1009091B2000E94ED13EC
:101C100082E061E0A40193010E944C070E94E71258
:101C2000882349F530C0C401B3010E943A066B0114
:101C30007C01611571058105910549F48DE00E94D3
:101C400010158AE00E94101580E393E051C1C40191
:101C5000B30141E0970186010E941A09C701B6014C
:101C600041E00FEF1FEF2FEF3FE00E941A0920E045
:101C700036014701FACE10928C0010928B00109220
:101C8000A7001092A600EB81EE2309F444C06091F6
:101C90003F037091400380914103909142030E9461
:101CA0003B14E0918700F0918800ED54FF4F138AB8
:101CB000128A8091A6009091A700978B868B8091C5
:101CC0008B0090918C00918F808F209191003091AA
:101CD00092004091930050919400848D958DA68D33
:101CE000B78D79018A01E81AF90A0A0B1B0B248FB8
:101CF000358F468F578F60913F03709140038091DD
:101D00004103909142030E94ED1381E0B801A701C5
:101D10000E94D30736C08090A2009090A300A090AC
:101D2000A400B090A50022242091B3023091B40207
:101D3000E0908D00F0908E0000918F001091900047
:101D4000C501B401625070408040904040E050E0D6
:101D50000E9489162B013C014E0C5F1C601E711EF7
:101D600033247DC073016201C30CD11CE11CF11C42
:101D7000C701B6010E943B1400E210E065C02220BA
:101D800011F080E0B8C0AF014D545F4FF801ED563F
:101D9000FF4FE081EE2319F0E53E09F053C020E04B
:101DA00030E0BA01620F731FAC81BD81A20FB31F77
:101DB0008C91DB018C932F5F3F4F2B30310589F7DE
:101DC000F801ED54FF4F7597B0E2B1931192119263
:101DD0002091A6003091A7002193319380918B0030
:101DE00090918C008193919311821082349621936B
:101DF00031939183808334978E819F8191838083F7
:101E00003696A981BA81A193B19380919100909166
:101E10009200A0919300B091940080839183A2835B
:101E2000B383C701B6010E94ED1340919100509118
:101E30009200609193007091940081E00E94D3071A
:101E400022242394005E1F4F80919500909196006C
:101E5000F801B097E817F90708F491CF339420916F
:101E6000B3023091B402832D90E08217930708F4F7
:101E700079CFC501B40140E000E010E020E030E09F
:101E80000E941A096B017C01673FBFEF7B07BFEF20
:101E90008B07BFE09B0710F16F3FEFEF7E07EFEF7F
:101EA0008E07EFE09E07B9F4C501B4010E943A061F
:101EB0006B017C01C501B40141E0970186010E94DC
:101EC0001A09C701B60141E00FEF1FEF2FEF3FE006
:101ED0000E941A0903C08BE193E00AC04601570132
:101EE000C114D104E104F10409F01ECF82E093E0B3
:101EF0000E94141581E027960FB6F894DEBF0FBE3E
:101F0000CDBFCF91DF911F910F91FF90EF90DF90A8
:101F1000CF90BF90AF909F908F907F906F905F9089
:101F20004F903F902F90089516BE82E180B911B86E
:101F3000089584EA86BF06B607FEFDCF81B190E022
:101F4000887F883009F091E0892F089584EA86BF60
:101F500006B607FEFDCF81B190E0887F803109F0A1
:101F600091E0892F089580FD02C028E101C020E49E
:101F700083B984E886BF06B607FEFDCF81B140E095
:101F800090E0887F907030E08217930709F041E07D
:101F9000842F089583B984E886BF06B607FEFDCF77
:101FA00081B190E0887F883209F091E0892F08950F
:101FB00084EC86BF06B607FEFDCF81B1887F8035F1
:101FC00011F08EE7089583B1089584E886BF06B6C0
:101FD00007FEFDCF81B1887F883511F08EE7089527
:101FE00083B1089584E986BF08950E94990F8130D6
:101FF00021F40E94F20F81E0089580ED0E94B30F5A
:102000008130B9F380E00E94CA0F813091F30E94C1
:10201000F20F80E008951F93CF93DF930E94990FF2
:102020008130F9F080ED0E94B30F8130D1F080E073
:102030000E94CA0F8130A9F00E94A60F813089F05A
:1020400081ED0E94B30F813061F0C0E8D0E010E074
:10205000163019F40E94E50F02C00E94D80F8E3787
:1020600021F40E94F20F81E007C089931F5F1730AF
:1020700079F70E94F20F80E0DF91CF911F910895D0
:102080000E940B10811132C00E940B101092C802E6
:1020900080918000982F9F7090639093C702807703
:1020A00082958F7080638093C6022AE32093C502D5
:1020B00080918100982F9F7090639093C4028077E5
:1020C00082958F7080638093C3022093C2028091B7
:1020D0008200982F9F7090639093C10280738295C5
:1020E0008F7080638093C00280E0089581E008953E
:1020F0000E940B10811134C010923D038091860024
:10210000982F9F70906390933C0382958F708063AB
:1021100080933B0380E380933A0382E38093390307
:102120009FE29093380320918500822F8F70806307
:102130008093370322952170206320933603909378
:10214000350380918400982F9F709063909334039F
:10215000807382958F7080638093330380E008954D
:1021600081E008950E944010811110C08DE00E940E
:1021700010158AE00E94101580E195E00E94141568
:1021800080EC92E00E941E1580E0089581E00895A1
:1021900080E095E00E9414158091830090E08730E4
:1021A0009105D0F4FC01E65DFF4F0C94CF1689EF4A
:1021B00094E014C082EF94E011C08AEE94E00EC067
:1021C00080EE94E00BC087ED94E008C080ED94E0D1
:1021D00005C087EC94E002C08FEB94E00C941415DA
:1021E0000E947810811112C08DE00E9410158AE0C3
:1021F0000E9410158AE095E00E94141583E393E095
:102200000E941E150E94C81080E0089581E0089584
:102210002091C602277080E1289F900111243091FF
:10222000C7023F70322B309380002091C302277089
:1022300080E1289F900111243091C4023F70322B1D
:10224000309381002091C002237080E1289F90018B
:1022500011243091C1023F70322B309382002091C3
:102260003D032093830020913303237080E1289F56
:1022700090011124309134033F70322B309384004D
:1022800020913603822F817090E024E0880F991FFF
:102290002A95E1F7909137039F70982B90938500D2
:1022A00080913B0320E1829FC001112490913C0367
:1022B0009F70982B909386000895CF93DF930E9490
:1022C000990F813021F40E94F20F81E018C080ED57
:1022D0000E94B30F8130B9F380E00E94CA0F8130B1
:1022E00091F3C0E8D0E089910E94CA0F813059F380
:1022F00080E0C338D807B9F70E94F20F80E0DF9181
:10230000CF910895CF93DF930E94990F813021F4EC
:102310000E94F20F81E018C080ED0E94B30F81305F
:10232000B9F383E00E94CA0F813091F3C3E8D0E093
:1023300089910E94CA0F813059F380E0C738D807CD
:10234000B9F70E94F20F80E0DF91CF910895CF930B
:102350008DE00E9410158AE00E9410158BE994E030
:102360000E9414150E940B15C82F0E94101580EDB5
:102370008C0F833008F065C0C093C0020E940B151B
:10238000C82F0E94101580ED8C0F8A3008F059C0BC
:10239000C093C1028AE30E9410158091C00283702D
:1023A0002091C1022F703AE0839FC0011124820F57
:1023B000911D48970CF045C00E940B15C82F0E9434
:1023C000101580ED8C0F8630E0F5C093C3020E949B
:1023D0000B15C82F0E94101580ED8C0F8A3088F5E0
:1023E000C093C4028AE30E9410150E940B15C82FE7
:1023F0000E94101580ED8C0F863018F5C093C60230
:102400000E940B15C82F0E94101580ED8C0F8A308A
:10241000C0F4C093C7020E9408110E945D11C82F2A
:102420008DE00E9410158AE00E941015C11106C0AF
:1024300081E894E00E94141580E00EC08CE694E0E0
:1024400008C08DE00E9410158AE00E9410158CE5EE
:1024500094E00E94141581E0CF910895CF93DF930B
:102460008DE00E9410158AE00E94101585E494E02A
:102470000E9414150E940B15C82F0E94101580EDA4
:102480008C0F843008F095C0C09333030E940B1565
:10249000C82F0E94101580ED8C0F8A3008F089C07B
:1024A000C0933403209133032370CF708AE0289FB8
:1024B000900111242C0F311D203231050CF079C010
:1024C0008FE20E941015DFE2D09335030E940B15B6
:1024D000C82F0E94101580ED8C0F823008F069C063
:1024E000C09336030E940B15C82F0E94101580ED73
:1024F0008C0F8A3008F05DC0C093370320913603FB
:102500002370CF708AE0289F900111242C0F311D79
:102510002D3031050CF04DC08FE20E941015D09384
:10252000380382E38093390380E380933A030E9467
:102530000B15C82F0E94101580ED8C0F8A30C8F53E
:10254000C0933B030E940B15C82F0E94101580ED0D
:102550008C0F8A3070F5C0933C038DE00E941015FB
:102560008AE00E9410158CE194E00E9414150E94EC
:102570000B15C82F0E94101580ED8C0F8730C8F402
:10258000CF70C0933D030E9408110E948211C82F92
:102590008DE00E9410158AE00E941015C11106C03E
:1025A00082E094E00E94141580E00EC08DEE93E06E
:1025B00008C08DE00E9410158AE00E9410158DED74
:1025C00093E00E94141581E0DF91CF9108950E945D
:1025D0000B10811161C080918600682F62956F7029
:1025E0008F7090E0449630918500532F52955F7024
:1025F00020918400422F42954F707AE0679F800DB2
:10260000911D112464E0880F991F6A95E1F73F70CE
:102610006AE0569F300D1124832B75E0880F991FB7
:102620007A95E1F72F707AE0479F200D1124822BD5
:1026300090938C0080938B0080918200982F9295CC
:102640009F7030918100432F42954F702091800000
:10265000522F52955F702F706AE0569F200D112403
:102660008F707AE0979F800D112450E4859FC00100
:1026700011243F706AE0469F300D1124832BE5E062
:10268000880F991FEA95E1F72695822B9093A70072
:102690008093A60080E0089581E00895DF92EF9294
:1026A000FF920F931F93D82E7A018B018091B9026C
:1026B0008823B9F48D2D8151823060F088E1D816DD
:1026C00049F089E1D81631F080E2D81619F081E29C
:1026D000D81639F439E0EE0CFF1C001F111F3A9593
:1026E000D1F7C4988D2D80640E94F614812F99270C
:1026F000AA27BB270E94F614C801AA27BB270E945D
:10270000F614BB27A12F902F8F2D0E94F6148E2D2B
:102710000E94F61488E0D81611F487E801C085E914
:102720000E94F61410E002C01150D1F00E94FB1478
:10273000082F8F3FC9F3882399F48AE3D81681F4D0
:102740000E94FB1486FF04C081E08093B90202C09E
:102750001092B9020E94FB140E94FB140E94FB1409
:102760000E94FB14C49A802F1F910F91FF90EF904D
:10277000DF900895AF92BF92CF92DF92EF92FF92D7
:102780000F931F937B018C0159016A0180E2B8010C
:10279000A7010E944E138823B9F40894E108F108B8
:1027A00001091109EA0CFB1C0C1D1D1D81E2B80179
:1027B000A7010E944E13882339F486E240E050E0DE
:1027C00060E070E00E944E131F910F91FF90EF9018
:1027D000DF90CF90BF90AF900895CF93DF93AB0180
:1027E000BC0188E10E944E13882311F0982F3FC04E
:1027F000C4988EEF0E94F614C0E0D0E0FE01ED54C4
:10280000FF4F80810E94F614219682E0C030D807E5
:10281000A9F78FEF0E94F6148FEF0E94F6140E9422
:10282000FB14982F8F71853041F0C49A20C08FEF30
:10283000CF3FD80791F0219602C0C0E0D0E00E94BF
:10284000FB148823A1F3C49A8FEF0E94F614C49856
:1028500008C08FEFCF3FD80719F4C49A91E007C0A2
:1028600021960E94FB148823A1F3C49A90E0892F3B
:10287000DF91CF9108951F93CF93DF93AB01BC01FC
:1028800081E10E944E13182F882309F5C498C0E0F7
:10289000D0E005C0219719F4C49A11E018C00E9435
:1028A000FB148E3FB9F7C0E0D0E00E94FB14FE019C
:1028B000ED54FF4F8083219682E0C030D807A9F7FE
:1028C0000E94FB140E94FB140E94FB14C49A812FE7
:1028D000DF91CF911F9108951F93CF93DF9310E065
:1028E0008FEF0E94F6141F5F1A30D1F7C498C0E032
:1028F000D0E080E040E050E060E070E00E944E13E5
:102900002196C132D10511F481E068C0813089F788
:10291000C49A8FEF0E94F6148FEF0E94F614C0E065
:10292000D0E088E04AEA51E060E070E00E944E1397
:102930002196CF3FD10559F48DE00E9410158AE011
:102940000E94101581E08093310311E003C08130B3
:1029500041F712E0C0E0D0E087E340E050E060E003
:1029600070E00E944E1389E240E050E060E070E4C5
:102970000E944E132196CF3FD10541F48DE00E9475
:1029800010158AE00E94101582E028C0882321F7E4
:102990001092B902123011F5C0E0D0E08AE340E0B5
:1029A00050E060E070E00E944E132196CF3FD105C9
:1029B00049F48DE00E9410158AE00E9410151092D3
:1029C000310302C0882351F78091B902813011F49C
:1029D00082E001C083E08093310380E0DF91CF91FA
:1029E0001F91089582E58DB91EB808958FB9779B20
:1029F000FECF8FB108958FEF8FB9779BFECF8FB148
:102A000008951AB81BB886E880BD89E189B910BC61
:102A100088E18AB908955F9BFECF8BB18CB1089590
:102A20005D9BFECF8CB90895FC0104C05D9BFECF79
:102A300031968CB984918823C9F70895FC0104C0AC
:102A40005D9BFECF31968CB980818823C9F70895AC
:102A5000DF93CF93CDB7DEB72B970FB6F894DEBFD9
:102A60000FBECDBF813011F494E005C0823011F467
:102A700098E001C092E0DE011196E4E7F0E08BE01F
:102A800001900D928150E1F79E012E5F3F4F842F00
:102A90008F70E92FF0E08A3020F4E20FF31F805DA1
:102AA00003C0E20FF31F895C8083915041F084E002
:102AB00076956795579547958A95D1F7E8CFCE01DA
:102AC00001960E941E152B960FB6F894DEBF0FBE1E
:102AD000CDBFCF91DF91089570D088F09F5790F0CF
:102AE000B92F9927B751A0F0D1F0660F771F881F33
:102AF000991F1AF0BA95C9F712C0B13081F077D09A
:102B0000B1E0089574C0672F782F8827B85F39F037
:102B1000B93FCCF3869577956795B395D9F73EF491
:102B200090958095709561957F4F8F4F9F4F089539
:102B3000E89409C097FB3EF4909580957095619557
:102B40007F4F8F4F9F4F9923A9F0F92F96E9BB270D
:102B50009395F695879577956795B795F111F8CF89
:102B6000FAF4BB0F11F460FF1BC06F5F7F4F8F4FF4
:102B70009F4F16C0882311F096E911C0772321F0EA
:102B80009EE8872F762F05C0662371F096E8862F82
:102B900070E060E02AF09A95660F771F881FDAF7D9
:102BA000880F9695879597F9089557FD9058440F8B
:102BB000551F59F05F3F71F04795880F97FB991F9C
:102BC00061F09F3F79F08795089512161306140659
:102BD000551FF2CF4695F1DF08C0161617061806E6
:102BE000991FF1CF86957105610508940895E894C1
:102BF000BB2766277727CB0197F908950BD078C0BC
:102C000069D028F06ED018F0952309F05AC05FC043
:102C10001124EECFCADFA0F3959FD1F3950F50E0BA
:102C2000551F629FF001729FBB27F00DB11D639F7E
:102C3000AA27F00DB11DAA1F649F6627B00DA11D24
:102C4000661F829F2227B00DA11D621F739FB00DCA
:102C5000A11D621F839FA00D611D221F749F33273A
:102C6000A00D611D231F849F600D211D822F762FD3
:102C70006A2F11249F5750408AF0E1F088234AF0D0
:102C8000EE0FFF1FBB1F661F771F881F915050401C
:102C9000A9F79E3F510570F014C0AACF5F3FECF337
:102CA000983EDCF3869577956795B795F795E79508
:102CB0009F5FC1F7FE2B880F911D9695879597F919
:102CC000089597F99F6780E870E060E008959FEFAE
:102CD00080EC089500240A941616170618060906B3
:102CE000089500240A941216130614060506089582
:102CF000092E0394000C11F4882352F0BB0F40F40A
:102D0000BF2B11F460FF04C06F5F7F4F8F4F9F4F49
:102D10000895DB018F939F930E94D516BF91AF91C9
:102D2000A29F800D911DA39F900DB29F900D112425
:102D30000895AA1BBB1B51E107C0AA1FBB1FA61702
:102D4000B70710F0A61BB70B881F991F5A95A9F754
:102D500080959095BC01CD010895A1E21A2EAA1B81
:102D6000BB1BFD010DC0AA1FBB1FEE1FFF1FA2173B
:102D7000B307E407F50720F0A21BB30BE40BF50B38
:102D8000661F771F881F991F1A9469F760957095C1
:102D9000809590959B01AC01BD01CF010895EE0F88
:102DA000FF1F0590F491E02D09940E94E016A59F65
:102DB000900DB49F900DA49F800D911D1124089536
:102DC000A29FB001B39FC001A39F700D811D11246C
:102DD000911DB29F700D811D1124911D0895F894CD
:022DE000FFCF23
:102DE2002020202020202020202020202020427966
:102DF20074657300307820202020202020200000DD
:00000001FF
