:100000000C9492020C94AF020C94AF020C94AF02C9
:100010000C94AF020C94AF020C94AF020C94AF029C
:100020000C94AF020C94AF020C94AF020C94AF028C
:100030000C94AF020C94AF020C94AF020C94AF027C
:100040000C94AF020C94AF020C94AF020C94AF026C
:100050000C94AF02FB120013051308130B131713B4
:100060001713440E470E4A0E4D0E500E530E560EE9
:100070000A0D0A0D20496E76616C6964206F7074F8
:10008000696F6E210A0D0046696C6520646F6573A7
:10009000206E6F742065786973742E2E0020666957
:1000A0006C65206E616D6520746F6F206C6F6E677C
:1000B0002E2E000A0D456E7465722066696C6520EF
:1000C0006E616D653A20000A0D4E6F726D616C2095
:1000D0006F7065726174696F6E207374617274659C
:1000E000642E2E000A0D0A0D3E20456E74657220A6
:1000F000746865206F7074696F6E3A000A0D3E2057
:1001000036203A2044656C6574652046696C65004C
:100110000A0D3E2035203A20526561642046696C04
:1001200065000A0D3E2034203A2047657420666938
:100130006C65206C697374000A0D3E2033203A20F0
:100140005570646174652054696D65000A0D3E2028
:1001500032203A20557064617465204461746500F2
:100160000A0D3E2031203A20446973706C61792079
:1001700063757272656E7420446174652F54696D85
:1001800065000A0D0A0D3E2030203A20457869743A
:1001900020746865204D656E75000A0D4641543324
:1001A00032206E6F7420666F756E642100556E6B21
:1001B0006E6F776E205344204361726420446574EF
:1001C000656374656421005374616E6461726420B8
:1001D00043617061636974792043617264202856B9
:1001E000657220322E7829204465746563746564D5
:1001F00021004869676820436170616369747920F0
:1002000043617264204465746563746564210053BE
:1002100074616E64617264204361706163697479B2
:100220002043617264202856657220312E7829207F
:100230004465746563746564210043617264204998
:100240006E697469616C697A6174696F6E20666148
:10025000696C65642E2E0053442063617264206EC5
:100260006F742064657465637465642E2E000A0DD6
:100270002A2A2A2A2A2A2A2A2A2A2A2A2A2A2A2ADE
:100280002A2A2A2A2A2A2A2A2A2A2A2A2A2A2A2ACE
:100290002A2A2A2A2A2A2A2A2A2A2A2A2A2A2A2ABE
:1002A0002A2A2A2A0A0D000A0D2020202020202098
:1002B00020206D6963726F534420446174616C6FD8
:1002C00067676572202D206279204343204468616E
:1002D000726D616E6920000A0D0A0D2A2A2A2A2AE7
:1002E0002A2A2A2A2A2A2A2A2A2A2A2A2A2A2A2A6E
:1002F0002A2A2A2A2A2A2A2A2A2A2A2A2A2A2A2A5E
:100300002A2A2A2A2A2A2A2A2A2A2A2A2A2A2A0077
:100310004572726F7220696E2067657474696E67CA
:1003200020636C757374657200456E64206F66207F
:10033000436C757374657220436861696E00204E6A
:100340006F206672656520636C7573746572210039
:10035000204E6F206672656520636C7573746572DC
:100360002100496E76616C69642066696C654E6136
:100370006D652E2E004572726F7220696E20676562
:100380007474696E6720636C75737465720045726E
:10039000726F7220696E2067657474696E6720637E
:1003A0006C757374657200524F4F5400444952008B
:1003B0002020200046494C45002020200046696C42
:1003C000652064656C65746564210044656C6574C2
:1003D000696E672E2E0046696C6520646F65732018
:1003E0006E6F742065786973742100496E76616C54
:1003F000696420456E7472792E2E00446174652004
:10040000557064617465204661696C65642E2E00C8
:10041000446174652055706461746564207375630C
:1004200065737366756C6C792100456E7465722016
:10043000446179202853756E6461793A302C204DDF
:100440006F6E6461793A312E2E2E292028302D3698
:10045000293A00456E7465722044617465202864F1
:10046000642F6D6D2F7979293A00496E76616C6938
:100470006420456E7472792E2E0054696D65205586
:100480007064617465204661696C65642E2E005449
:10049000696D65205570646174656420737563656A
:1004A000737366756C6C792100456E7465722054A7
:1004B000696D6520696E2032346820666F726D61E7
:1004C000742868683A6D6D3A7373293A00556E6BFB
:1004D0006E6F776E00536174757264617900467255
:1004E0006964617900546875727364617900576555
:1004F000646E657364617900547565736461790035
:100500004D6F6E6461790053756E646179002020CF
:1005100020204461793A2000446174653A005469AE
:100520006D653A0011241FBECFE5D8E0DEBFCDBF18
:1005300010E0A0E6B0E0E6E8FBE202C005900D9214
:10054000A038B107D9F713E0A0E8B0E001C01D92D0
:10055000A334B107E1F70E9468120C94C1150C9402
:1005600000001BBA1ABA18BA8FEB87BB80E885BBAC
:1005700080E284BB12BA11BA0895F8940E94B102C5
:100580000E9459120E94090D0E94E1020E94530329
:1005900015BE1BBE19BE0895AE9A2FEF83EC99E0ED
:1005A000215080409040E1F700C00000AE982FEF4E
:1005B00083EC99E0215080409040E1F700C00000BA
:1005C000EBCF1AB81BB886E880BD89E189B910BCA9
:1005D00088E18AB908955F9BFECF8BB18CB10895F5
:1005E0005D9BFECF8CB90895CF93DF93EC01CE01D4
:1005F000FE012491222331F02196FC0184910E9476
:10060000F002F5CFDF91CF910895CF93DF93EC0106
:100610008991882319F00E94F002FACFDF91CF91DF
:100620000895CF93DF93CDB7DEB72B970FB6F8942D
:10063000DEBF0FBECDBF9BE0E0E6F0E0DE0111962D
:1006400001900D929A95E1F7813021F0823021F0EE
:1006500022E003C024E001C028E0342F3F70822F45
:1006600090E0E2E0F0E0EC0FFD1FE80FF91F3A30F8
:1006700010F4305D01C0395C308384E07695679575
:10068000579547958A95D1F7215039F7CE010196B4
:100690000E9405032B960FB6F894DEBF0FBECDBFA8
:1006A000DF91CF91089516B880E487B982E886B9C2
:1006B000379A089548E080E090E0369A349BFECF68
:1006C000349A54B125B130E0322F2227250F311D45
:1006D000820F931F415089F723E0969587952A95BD
:1006E000E1F7811524E0920710F08FEF93E0089571
:1006F000806487B90E945A03BC0180E090E00E94A8
:100700006A1420E030E040EA50E40E94D01420E077
:1007100030E040E85AE30E94D01420E030E04AE79D
:1007200054E40E94D0140E943E1423E42093A100BC
:1007300020EB2093A0002AE030E0CB01B9010E9419
:100740008515806380939F008EE280939E00CB018D
:10075000B9010E948515806380939D00CB01B9018A
:100760000E948515806380939C00606360939B006A
:100770000895806487B90E945A03BC0180E090E02C
:100780000E946A1420E030E040EA50E40E94D01455
:1007900020E030E040E85AE30E94D01420E030E04E
:1007A0004AE754E40E94D0140E943E1426E52093A8
:1007B000AE0020E22093AD002AE030E0CB01B90189
:1007C0000E94851580638093AC00CB01B9010E9423
:1007D000851580638093AB00CB01B9010E9485151C
:1007E00080638093AA008EE28093A9006063609387
:1007F000A8000895CF92DF92EF92FF929B01AC0187
:10080000A091B302B091B402C0908D00D0908E0040
:10081000E0908F00F0909000225031094109510979
:100820000E946A156C0D7D1D8E1D9F1DFF90EF901F
:10083000DF90CF9008954F925F926F927F928F9248
:100840009F92AF92BF92CF92DF92EF92FF920F935F
:100850001F93CF93DF934B015C01C42F2801390113
:100860008091BE029091BF0222E0880C991CAA1CC4
:10087000BB1C2A95D1F72091950030919600C0902D
:10088000B502D090B602E090B702F090B802C80E60
:10089000D91EE11CF11C40E050E0C501B4010E94EA
:1008A0009915C20ED31EE41EF51E209195003091BD
:1008B000960040E050E0C501B4010E9499154B013B
:1008C0005C01DAE0C701B6010E94E311882311F050
:1008D000D150C1F7F401ED54FF4FC11106C0608142
:1008E0007181828193819F700BC0408251826282AC
:1008F0007382C701B6010E94111260E070E0CB0163
:10090000DF91CF911F910F91FF90EF90DF90CF90EB
:10091000BF90AF909F908F907F906F905F904F901F
:100920000895CF92DF92EF92FF920F931F93CF9390
:10093000DF9300D000D0CDB7DEB7182F062F60911F
:10094000B5027091B6028091B7029091B8026F5FC4
:100950007F4F8F4F9F4F29833A834B835C830E9445
:10096000E311C090B300D090B400E090B500F090D7
:10097000B60029813A814B815C8182E5C816D80690
:1009800081E6E80681E4F80609F057C0C0909702B6
:10099000D0909802E0909902F0909A02E2E7CE1689
:1009A000DE06E1E4EE06E1E6FE0609F046C0C09090
:1009B000AF02D090B002E090B102F090B202C11448
:1009C000D104F5E5EF06FAEAFF06B9F5011114C006
:1009D000113049F460919B0270919C0280919D02BC
:1009E00090919E022DC060919F027091A002809113
:1009F000A1029091A20224C0113049F420939B02DD
:100A000030939C0240939D0250939E0208C0209315
:100A10009F023093A0024093A1025093A2026091E2
:100A2000B5027091B6028091B7029091B8026F5FE3
:100A30007F4F8F4F9F4F0E9411126FEF7FEFCB01BF
:100A40000F900F900F900F90DF91CF911F910F910A
:100A5000FF90EF90DF90CF9008950F931F93CF9367
:100A6000DF931092B5021092B6021092B702109264
:100A7000B80260E070E0CB010E94E3118091B30006
:100A80008D7F893E09F08AC08091BE009091BF00A1
:100A900090939600809395008091C00090E0909391
:100AA000B4028093B302E091C100F091C200F093D0
:100AB000BF02E093BE028091DF009091E000A09120
:100AC000E100B091E2008093A2009093A300A09374
:100AD000A400B093A500C091BE02D091BF02A09126
:100AE000C3002091D7003091D8004091D900509197
:100AF000DA00B0E00E946A158B019C018091CF0062
:100B00009091D000A091D100B091D2008C0F9D1F88
:100B1000A11DB11D800F911FA21FB31F80938D00D7
:100B200090938E00A0938F00B09390004091B302F9
:100B30005091B4026091D3007091D4008091D5009F
:100B40009091D6006E1B7F0B81099109601B710B80
:100B5000820B930B9A0140E050E00E94991520937C
:100B60009700309398004093990050939A0020E0AA
:100B700030E0A90160E081E00E94910400919700BB
:100B8000109198002091990030919A00061717074C
:100B90002807390720F510923E0324C08091B10246
:100BA0009091B20285359A4A11F081E01CC06091A3
:100BB000790270917A0280917B0290917C0260931D
:100BC000B5027093B6028093B7029093B8020E9468
:100BD000E3118091B3008D7F893E39F755CF81E0D5
:100BE00080933E0380E0DF91CF911F910F91089594
:100BF000CF93DF93CDB7DEB72B970FB6F894DEBF58
:100C00000FBECDBFFC0140E021912E3221F04F5F9D
:100C10004C30D1F709C0542F493030F49E012F5F7A
:100C20003F4FF901DC0106C082E693E00E94F40226
:100C300081E040C06E2F621B641718F46D916193C0
:100C4000F9CF60E2483031F0F901E40FF11D608323
:100C50004F5FF8CF5F5F70E2FC01E50FF11D60812F
:100C6000662331F05F5FF901E40FF11D608308C076
:100C7000642F4F5FF901E60FF11D70834B30C0F315
:100C80004F5F4B3048F3AE01445F5F4FF901608125
:100C90007FE9760F7A3110F4605260833196E41761
:100CA000F507A9F7DC01F90181918D93E417F507A8
:100CB000D9F780E02B960FB6F894DEBF0FBECDBFFC
:100CC000DF91CF9108954F925F926F927F928F92B2
:100CD0009F92AF92BF92CF92DF92EF92FF926B0101
:100CE0007C0180E8C8222601370132E0440C551C03
:100CF000661C771C3A95D1F78091970090919800E7
:100D0000A0919900B0919A00C816D906EA06FB0690
:100D100008F042C08091BE029091BF0220919500E0
:100D2000309196008090B5029090B602A090B702E4
:100D3000B090B802880E991EA11CB11C40E050E092
:100D4000C301B2010E949915820E931EA41EB51E06
:100D5000C501B4010E94E311E3EBF0E020E08191D2
:100D60009191A191B191BF70892B8A2B8B2B39F472
:100D7000C701B601620F711D811D911D10C02F5F4B
:100D8000203869F780E8C80ED11CE11CF11C82E014
:100D9000580E611C711CB0CF60E070E0CB01FF9079
:100DA000EF90DF90CF90BF90AF909F908F907F900B
:100DB0006F905F904F9008959F92AF92BF92CF92A5
:100DC000DF92EF92FF920F931F93CF93DF93CDB7F4
:100DD000DEB764970FB6F894DEBF0FBECDBFA82E66
:100DE00094E1EBE6F0E0DE01119601900D929A9508
:100DF000E1F7ECE0BE2EFCE29F2EAAE0CA2ED12C39
:100E0000E12CF12C85E0B81619F0E9E0BE1205C01E
:100E1000FE01EB0DF11D9082BA948E010B0D111D98
:100E2000CB01BA01A70196010E949915CA0160631E
:100E3000F8016083A901BC014115510561057105E7
:100E400011F0BA94F9F6F1E0AF1202C08BE48E878C
:100E5000CE0101960E94050364960FB6F894DEBF9A
:100E60000FBECDBFDF91CF911F910F91FF90EF90FB
:100E7000DF90CF90BF90AF909F900895CF92DF9278
:100E8000EF92FF920F931F93CF93C82F8A019B017C
:100E90001170222733276A017B0189E0F694E794D9
:100EA000D794C7948A95D1F7012B022B032B29F0F5
:100EB0008FEFC81AD80AE80AF80AB701A6014770E6
:100EC000552766277727B3E0F694E794D794C7941D
:100ED000BA95D1F7452B462B472B29F08FEFC81A2F
:100EE000D80AE80AF80A80913E038823F9F020E046
:100EF00030E0A90160E081E00E9491049B01AC0117
:100F0000C11105C02C0D3D1D4E1D5F1D04C02C19C7
:100F10003D094E095F0961E081E0CF911F910F917A
:100F2000FF90EF90DF90CF900C949104CF911F91A0
:100F30000F91FF90EF90DF90CF9008952F923F9206
:100F40004F925F926F927F928F929F92AF92BF92D9
:100F5000CF92DF92EF92FF920F931F93CF93DF9385
:100F6000CDB7DEB72B970FB6F894DEBF0FBECDBF5F
:100F7000382E6887272EC090A200D090A300E09062
:100F8000A400F090A5008FEF830D8F83C701B601F9
:100F90000E94FA036B837C838D839E83412C512CAA
:100FA00032018091B3029091B402A0E0B0E0481603
:100FB00059066A067B0608F092C08B809C80AD8043
:100FC000BE80840C951CA61CB71CC501B4010E94F0
:100FD000E3110EEB10E0A3EBB0E0BB87AA872A85F4
:100FE0003B85235B304080919500909196002817B7
:100FF000390708F06EC0EA85FB858081811106C043
:10100000F2E03F1288C086ED93E083C0853E09F48C
:1010100058C0D8018C918F3009F453C0BF81B230D1
:1010200060F4E885F22DAA85BB859D918191981386
:1010300048C0A017B107C9F771C08DE00E94F00247
:101040008AE00E94F002EA85FB85FA83E98390E05A
:10105000A981BA818D91BA83A98399870E94F002F0
:1010600099859F5F9B3041F0983091F780E2998796
:101070000E94F0029985ECCF89EB93E00E94F40284
:10108000F80180818031B1F08830B9F084EB93E0D1
:101090000E94F40280EB93E00E94F402AA85BB85D3
:1010A0005C964D915D916D917C915F9780E00E947F
:1010B000DC0607C08CEA93E002C087EA93E00E9456
:1010C000F402EA85FB85B096FB87EA87005E1F4F36
:1010D00086CFFFEF4F1A5F0A6F0A7F0A62CF00E0E8
:1010E00010E0980140E0C701B6010E941B046B01AB
:1010F0007C0187EFC8168FEFD806E8068FE0F80668
:1011000050F4C114D104E104F10409F03FCF8EE89A
:1011100093E00E94F40280E090E0AEC091E03912CA
:101120003BC080923F0390924003A0924103B09253
:101130004203C901A0E0B0E080938700909388004B
:10114000A0938900B0938A00EA85FB8584899589FC
:10115000A0E0B0E0DC0199278827428D538D60E044
:1011600070E0842B952BA62BB72B8093C90290930C
:10117000CA02A093CB02B093CC02848D958DA68D2C
:10118000B78D8093910090939200A0939300B093B9
:1011900094008A859B8570C08DE00E94F0028AE0F1
:1011A0000E94F0028BEC93E00E94F4028DE00E941A
:1011B000F0028AE00E94F0028DE00E94F0028AE0D4
:1011C0000E94F002AA85BB855496CD90DC9055977D
:1011D000E12CF12C7601DD24CC245A968D919C9142
:1011E0005B97A0E0B0E0C82AD92AEA2AFB2A85EE5C
:1011F000EA85FB858083C501B4010E941112AA858E
:10120000BB855C964D915D916D917C915F9780E07F
:101210000E943E0720E030E0A90160E082E00E94E9
:101220009104C616D706E806F90630F4A701960120
:1012300061E082E00E94910400E010E0980140E04B
:10124000C701B6010E941B044B015C0100E010E0E5
:10125000980141E0C701B6010E941B04B7EF8B164D
:10126000BFEF9B06AB06BFE0BB0618F47501640137
:10127000E3CF8DEB93E04DCF2B960FB6F894DEBF06
:101280000FBECDBFDF91CF911F910F91FF90EF90D7
:10129000DF90CF90BF90AF909F908F907F906F9096
:1012A0005F904F903F902F9008952F923F924F92D2
:1012B0005F926F927F928F929F92AF92BF92CF92E6
:1012C000DF92EF92FF920F931F93CF93DF93CDB7EF
:1012D000DEB728970FB6F894DEBF0FBECDBF182F2C
:1012E000CB016F8378870E94F8056F817885811123
:1012F00089C081E00E949E07FC01009729F481E0EB
:10130000112309F484C082C0113009F47DC0C4885F
:10131000D588E12CF12C7601DD24CC24428D538D2F
:1013200060E070E0C42AD52AE62AF72A448C558C5E
:10133000668C778C8DE00E94F0028AE00E94F002B9
:101340008DE00E94F0028AE00E94F002812C912C34
:101350005401C701B6010E94FA0369837A838B8323
:101360009C8310E08091B3029091B402212F30E071
:101370002817390790F569817A818B819C81610FEB
:10138000711D811D911D0E94E311B501A401212C45
:10139000312CF101ED54FF4F80814D835E836F83CB
:1013A00078870E94F0028FEF881A980AA80AB80A74
:1013B0004D815E816F8178854415550566057705F9
:1013C00028F5EFEF2E1A3E0A2114F2E03F0619F03D
:1013D000B501A401DECF1F5FC5CF00E010E098018A
:1013E00040E0C701B6010E941B046B017C0161153E
:1013F00071058105910509F0ACCF85E793E00E9466
:10140000F40204C082E003C081E001C080E02896BD
:101410000FB6F894DEBF0FBECDBFDF91CF911F9105
:101420000F91FF90EF90DF90CF90BF90AF909F9083
:101430008F907F906F905F904F903F902F90089586
:10144000CF93DF93EC010E94F805811106C0BE0125
:1014500082E0DF91CF910C949E07DF91CF910895A8
:101460002F923F924F925F926F927F928F929F92B4
:10147000AF92BF92CF92DF92EF92FF920F931F93A2
:10148000CF93DF93CDB7DEB728970FB6F894DEBFC2
:101490000FBECDBF8D839E83BC0181E00E945509A4
:1014A000813009F051C0C090C902D090CA02E090CA
:1014B000CB02F090CC02812C912C540100E010E082
:1014C000980140E0C701B6010E941B046F3F2FEF57
:1014D000720782072FE0920741F04FEF841A940AB7
:1014E000A40AB40A6B017C01E9CFA091B302B091C8
:1014F000B4022091950030919600E0919500F09112
:1015000096000E945B159B01AC01C501B4010E94CD
:1015100075158B019C0160919100709192008091F2
:10152000930090919400601B710B820B930B9F01B1
:1015300040E050E00E949915022F212C312C1C8292
:101540001B827724739445C0823009F446C220E0A0
:1015500030E0A90160E082E00E94910400919700D0
:10156000109198002091990030919A000617170762
:101570002807390740F46091A2007091A300809180
:10158000A4009091A5000E9463066B017C01611587
:1015900071058105910549F48DE00E94F0028AE011
:1015A0000E94F00280E593E016C20FEF1FEF2FEFCD
:1015B0003FE041E00E941B04FC82EB821601109286
:1015C000910010929200109293001092940000E00B
:1015D000712C612C802E912CA12CB12C7720E9F15B
:1015E000C701B6010E94FA03680D791D8A1D9B1D73
:1015F0006093AF007093B0008093B1009093B200FD
:101600006091AF007091B0008091B1009091B200F4
:101610000E94E311209195003091960040E050E047
:10162000609191007091920080919300909194004C
:101630000E94991573C08B019C0141E0C701B6015E
:101640000E941B040FEF1FEF2FEF3FE041E0C501A9
:10165000B4010E941B0475016401C701B6010E9418
:10166000FA036093AF007093B0008093B100909341
:10167000B20080E090E000E0E62D6394F0E0E353F8
:10168000FD4F1081BC016F5F7F4FFC01ED54FF4F98
:1016900010838091910090919200A0919300B0915D
:1016A00094000196A11DB11D80939100909392002A
:1016B000A0939300B0939400611582E0780748F1FD
:1016C0006091AF007091B0008091B1009091B20034
:1016D0000E9411120F5F8091B3029091B402402FCB
:1016E00050E048175907E1F08091AF009091B000A9
:1016F000A091B100B091B2000196A11DB11D8093DF
:10170000AF009093B000A093B100B093B20060E03E
:1017100070E01A3071F093E6961558F0CB01ACCF1B
:101720001A3019F460E070E004C0A3E6A61540F595
:10173000F9CFFB01ED54FF4F10826F5F7F4F6115B2
:10174000B2E07B07B1F76091AF007091B00080917B
:10175000B1009091B2000E941112A701960161E0C0
:1017600082E00E9491040E9454108823F1F01092AC
:101770008C0010928B001092A7001092A60015C04A
:10178000C701B6010E9463064B015C01611571053A
:101790008105910509F04FCF8DE00E94F0028AE0AB
:1017A0000E94F0028EE393E016C1772009F444C052
:1017B00060913F03709140038091410390914203F7
:1017C0000E94E311E0918700F0918800ED54FF4FF3
:1017D000138A128A8091A6009091A700978B868B1E
:1017E00080918B0090918C00918F808F80919100DF
:1017F00090919200A0919300B0919400448D558DEA
:10180000668D778D6C017D01C41AD50AE60AF70A48
:10181000848F958FA68FB78F60913F03709140039F
:1018200080914103909142030E941112B701A601D9
:1018300081E00E943E07D3C0C090A200D090A300D8
:10184000E090A400F090A5001A82C701B6010E94A2
:10185000FA032B013C0119828091B3029091B402EA
:101860004981242F30E02817390708F077C0530149
:1018700042012981820E911CA11CB11CC501B40139
:101880000E94E31183EB90E098878F8300E010E0E3
:1018900080919500909196000817190708F05AC09A
:1018A0009A8191119CC0AF81B8858C91882319F0E1
:1018B000853E09F047C0ED81FE81AF81B8858BE0A0
:1018C00091919D938150E1F7F801ED54FF4FB0E203
:1018D000B387148615868091A6009091A700EF81AA
:1018E000F8859787868720918B0030918C00318B0B
:1018F000208B138A128A978B868B318F208F8B8156
:101900009C81958B848B338E228E80919100909157
:101910009200A0919300B0919400848F958FA68F30
:10192000B78FC501B4010E941112409191005091EE
:101930009200609193007091940081E00E943E07B4
:10194000F1E0FA83005E1F4F8F819885809698871B
:101950008F839ECF29812F5F29837ECF00E010E007
:10196000980140E0C701B6010E941B044B015C01D5
:1019700087EF88168FEF9806A8068FE0B80608F163
:101980009FEF89169906A9069FE0B906B9F4C70129
:10199000B6010E9463064B015C018B019C0141E092
:1019A000C701B6010E941B040FEF1FEF2FEF3FE0AE
:1019B00041E0C501B4010E941B0403C089E293E029
:1019C0000AC081149104A104B10419F075016401E5
:1019D0003CCF80E193E00E94F40281E001C080E00E
:1019E00028960FB6F894DEBF0FBECDBFDF91CF9122
:1019F0001F910F91FF90EF90DF90CF90BF90AF902D
:101A00009F908F907F906F905F904F903F902F901E
:101A1000089516BE82E180B911B8089584EA86BFA0
:101A200006B607FEFDCF91B1987F81E0983009F4AA
:101A300080E0089584EA86BF06B607FEFDCF91B127
:101A4000987F81E0903109F480E0089580FD02C024
:101A500028E101C020E483B984E886BF06B607FE0A
:101A6000FDCF91B1987F81E0921301C080E008958D
:101A700083B984E886BF06B607FEFDCF91B1987F93
:101A800081E0983209F480E0089584EC86BF06B6C0
:101A900007FEFDCF81B1887F803511F483B10895B1
:101AA0008EE7089584E886BF06B607FEFDCF81B1B4
:101AB000887F883511F483B108958EE7089584E90D
:101AC00086BF08950E940E0D813021F40E945F0DA3
:101AD00081E0089580ED0E94260D8130B9F380E009
:101AE0000E94380D813091F30E945F0D80E00895CF
:101AF0001F93CF93DF930E940E0D8130F9F080ED9C
:101B00000E94260D8130D1F080E00E94380D813096
:101B1000A9F00E941A0D813089F081ED0E94260DF6
:101B2000813061F0C0E8D0E010E0163019F40E9476
:101B3000520D02C00E94450D8E3721F40E945F0DA8
:101B400081E007C089931F5F173079F70E945F0D0E
:101B500080E0DF91CF911F9108950E94780D81114F
:101B600032C00E94780D1092C80280918000982F98
:101B70009F7090639093C702807782958F70806387
:101B80008093C6022AE32093C50280918100982F9A
:101B90009F7090639093C402807782958F7080636A
:101BA0008093C3022093C20280918200982F9F707D
:101BB00090639093C102807382958F70806380934D
:101BC000C00280E0089581E008950E94780D81119F
:101BD00034C010923D0380918600982F9F709063CF
:101BE00090933C0382958F70806380933B0380E3E6
:101BF00080933A0382E3809339039FE29093380302
:101C000020918500822F8F70806380933703229507
:101C100021702063209336039093350380918400D4
:101C2000982F9F70906390933403807382958F7088
:101C300080638093330380E0089581E008950E94DB
:101C4000AD0D811110C08DE00E94F0028AE00E946B
:101C5000F0028EE195E00E94F40280EC92E00E9496
:101C6000050380E0089581E008958EE095E00E94EC
:101C7000F4028091830090E087309105D0F4FC015C
:101C8000EF5CFF4F0C94BB1587E095E014C080E03B
:101C900095E011C088EF94E00EC08EEE94E00BC08A
:101CA00085EE94E008C08EED94E005C085ED94E0EB
:101CB00002C08DEC94E00C94F4020E94E50D8111B9
:101CC00012C08DE00E94F0028AE00E94F00288E1DA
:101CD00095E00E94F40283E393E00E9405030E94D2
:101CE000350E80E0089581E008952091C6022770A6
:101CF00080E1289F900111243091C7023F70322B60
:101D0000309380002091C302277080E1289F9001CA
:101D100011243091C4023F70322B30938100209106
:101D2000C002237080E1289F900111243091C102EC
:101D30003F70322B3093820020913D03209383002B
:101D400020913303237080E1289F9001112430916A
:101D500034033F70322B3093840020913603822F5E
:101D6000817090E024E0880F991F2A95E1F7909107
:101D700037039F70982B9093850080913B0320E15F
:101D8000829FC001112490913C039F70982B9093E7
:101D900086000895CF93DF930E940E0D813021F4C9
:101DA0000E945F0D81E018C080ED0E94260D8130F9
:101DB000B9F380E00E94380D813091F3C0E8D0E0A3
:101DC00089910E94380D813059F380E0C338D807DB
:101DD000B9F70E945F0D80E0DF91CF910895CF9316
:101DE000DF930E940E0D813021F40E945F0D81E08F
:101DF00018C080ED0E94260D8130B9F383E00E9467
:101E0000380D813091F3C3E8D0E089910E94380DFC
:101E1000813059F380E0C738D807B9F70E945F0DC9
:101E200080E0DF91CF910895CF938DE00E94F00282
:101E30008AE00E94F00289EA94E00E94F4020E9483
:101E4000EB02C82F0E94F00280ED8C0F833008F067
:101E500065C0C093C0020E94EB02C82F0E94F0022E
:101E600080ED8C0F8A3008F059C0C093C1028AE31C
:101E70000E94F0028091C00283702091C1022F70F5
:101E80003AE0839FC0011124820F911D48970CF006
:101E900045C00E94EB02C82F0E94F00280ED8C0F1B
:101EA0008630E0F5C093C3020E94EB02C82F0E9467
:101EB000F00280ED8C0F8A3088F5C093C4028AE36B
:101EC0000E94F0020E94EB02C82F0E94F00280EDF7
:101ED0008C0F863018F5C093C6020E94EB02C82F03
:101EE0000E94F00280ED8C0F8A30C0F4C093C702CC
:101EF0000E94750E0E94CA0EC82F8DE00E94F0024B
:101F00008AE00E94F002C11106C08FE894E00E94AE
:101F1000F40280E00EC08AE794E008C08DE00E94E1
:101F2000F0028AE00E94F0028AE694E00E94F40245
:101F300081E0CF910895CF93DF938DE00E94F0026E
:101F40008AE00E94F00283E594E00E94F4020E947D
:101F5000EB02C82F0E94F00280ED8C0F843008F055
:101F600095C0C09333030E94EB02C82F0E94F00279
:101F700080ED8C0F8A3008F089C0C0933403209123
:101F800033032370CF708AE0289F900111242C0F17
:101F9000311D203231050CF079C08FE20E94F00231
:101FA000DFE2D09335030E94EB02C82F0E94F002BB
:101FB00080ED8C0F823008F069C0C09336030E9418
:101FC000EB02C82F0E94F00280ED8C0F8A3008F0DF
:101FD0005DC0C0933703209136032370CF708AE031
:101FE000289F900111242C0F311D2D3031050CF04C
:101FF0004DC08FE20E94F002D093380382E38093B9
:10200000390380E380933A030E94EB02C82F0E94B9
:10201000F00280ED8C0F8A30C8F5C0933B030E941C
:10202000EB02C82F0E94F00280ED8C0F8A3070F511
:10203000C0933C038DE00E94F0028AE00E94F0020F
:102040008AE294E00E94F4020E94EB02C82F0E94F0
:10205000F00280ED8C0F8730C8F4CF70C0933D0341
:102060000E94750E0E94EF0EC82F8DE00E94F002B4
:102070008AE00E94F002C11106C080E194E00E9453
:10208000F40280E00EC08BEF93E008C08DE00E9468
:10209000F0028AE00E94F0028BEE93E00E94F402CC
:1020A00081E0DF91CF9108950E94780D811161C088
:1020B00080918600682F62956F708F7090E04496D3
:1020C00030918500532F52955F7020918400422FEC
:1020D00042954F707AE0679F800D911D112464E056
:1020E000880F991F6A95E1F73F706AE0569F300D9F
:1020F0001124832B75E0880F991F7A95E1F72F70D3
:102100007AE0479F200D1124822B90938C008093BE
:102110008B0080918200982F92959F703091810062
:10212000432F42954F7020918000522F52955F703F
:102130002F706AE0569F200D11248F707AE0979FD0
:10214000800D112450E4859FC00111243F706AE086
:10215000469F300D1124832BE5E0880F991FEA95E7
:10216000E1F72695822B9093A7008093A60080E04C
:10217000089581E00895FF920F931F93CF93DF930B
:1021800000D000D0CDB7DEB7082F8091B902811101
:1021900013C08FEE800F823040F088EE800F8230C7
:1021A00020F080EE800F823038F489E0440F551F14
:1021B000661F771F8A95D1F7C498802F8064498362
:1021C0005A836B837C830E945D127C81872F0E94DF
:1021D0005D126B81862F0E945D125A81852F0E94AD
:1021E0005D124981842F0E945D12083011F487E846
:1021F00001C085E90E945D1210E00E946212F82E73
:102200008FEFF81203C01150C1F715C0F11013C0C1
:102210000A3389F40E94621286FF04C081E0809331
:10222000B90202C01092B9020E9462120E946212A8
:102230000E946212F12C0E946212C49A8F2D0F909C
:102240000F900F900F90DF91CF911F910F91FF9002
:1022500008950F931F93CF93DF931AE08FEF0E949F
:102260005D121150D9F7C498C1E2D0E040E050E0CF
:10227000BA0180E00E94BB102197209709F463C047
:102280008130A1F7C49A8FEF0E945D128FEF0E94F8
:102290005D12CFEFD0E04AEA51E060E070E088E004
:1022A0000E94BB102197209759F48DE00E94F00204
:1022B0008AE00E94F00281E08093310301E003C0D4
:1022C000813049F702E0CFEFD0E040E050E0BA01C2
:1022D00087E30E94BB1040E050E060E070E489E2D8
:1022E0000E94BB102197209741F48DE00E94F002DC
:1022F0008AE00E94F00212E027C08111E6CF10921E
:10230000B902023009F5CFEFD0E040E050E0BA0169
:102310008AE30E94BB102197209749F48DE00E9428
:10232000F0028AE00E94F0021092310302C0811193
:10233000ECCF8091B902813011F482E001C083E0DA
:102340008093310301C011E0812FDF91CF911F9164
:102350000F9108958F929F92AF92BF92CF92DF928A
:10236000EF92FF926B017C0149015A01AB01BC0164
:1023700080E20E94BB1081111DC0B501A401415033
:102380005109610971094C0D5D1D6E1D7F1D81E2B2
:102390000E94BB1081110EC040E050E0BA0186E2FD
:1023A000FF90EF90DF90CF90BF90AF909F908F9075
:1023B0000C94BB10FF90EF90DF90CF90BF90AF9048
:1023C0009F908F900895CF93DF93AB01BC0181E183
:1023D0000E94BB10811122C0C498C0E0D0E00E94CE
:1023E00062128E3F31F021972097C9F7C49A81E09D
:1023F00015C0C0E0D0E00E946212FE01ED54FF4F14
:1024000080832196C11582E0D807A9F70E94621245
:102410000E9462120E946212C49A80E0DF91CF9102
:102420000895CF93DF93AB01BC0188E10E94BB10FC
:1024300081113CC0C4988EEF0E945D12C0E0D0E0D4
:10244000FE01ED54FF4F80810E945D122196C1155F
:1024500022E0D207A9F78FEF0E945D128FEF0E9452
:102460005D120E946212982F9F71953011F0C49AEC
:102470001DC0C0E0D0E00E946212811103C021960D
:10248000D1F706C0C49A8FEF0E945D12C49808C0AD
:10249000C49A81E00BC0CE0101962196C9F3EC01EC
:1024A0000E9462128823B9F3C49A80E0DF91CF9131
:1024B000089582E58DB91EB808958FB9779BFECF38
:1024C0008FB108958FEF8FB9779BFECF8FB10895AD
:1024D000CF93DF93CDB7DEB72E970FB6F894DEBF5C
:1024E0000FBECDBF2FEF30E742E0215030404040DB
:1024F000E1F700C000000E94BD02AE9887ED92E0B7
:102500000E94F40287EA92E00E94F4028EE692E0D2
:102510000E94F402109231031AE00E9429118823CC
:1025200079F01150D1F7813019F487E592E004C0B9
:10253000823021F48AE392E00E94F4020E94CC02ED
:1025400080913103823039F0833041F0813049F499
:102550008FE092E008C082EF91E005C087EC91E047
:1025600002C08DEA91E00E94F4020E942D058823AA
:1025700019F08AE991E0E0CF80E58DB9709A8FEC8F
:1025800097E00197F1F700C000009F99B1C08E015C
:10259000025F1F4F82E891E00E94F40280E691E022
:1025A0000E94F4028CE491E00E94F40288E391E03E
:1025B0000E94F40282E291E00E94F40280E191E044
:1025C0000E94F4028CEF90E00E94F40284EE90E00E
:1025D0000E94F4020E94EB02E82E0E94F0024E2DAF
:1025E00050E0FA01F097E730F10508F071C0E65DC0
:1025F000FF4F0C94BB1587EC90E00E94F40237C1AA
:102600000E945D0E0E941F0EC5CF0E949B0FC2CF7D
:102610000E94140FBFCF8DE00E94F0028AE00E945A
:10262000F00260E070E080E00E949E07B3CF83EB91
:1026300090E00E94F402FE0131961192E017F1073A
:10264000E1F7F12C0E94EB02982F8D3041F1883098
:1026500069F4FF20B9F388E00E94F00280E20E9452
:10266000F00288E00E94F002FA94ECCF80EE890F2D
:102670008F3540F7892F9E870E94F00281E08F0DF1
:10268000E1E0F0E0EC0FFD1FEF0DF11D9E85908362
:102690008D3011F0F82ED6CF8DE990E01BC09CE074
:1026A0009F1508F477CF8DE00E94F0028AE00E9427
:1026B000F002E5E3EE12DDC0BE016F5F7F4F80E008
:1026C0000E945509813009F065CF87E890E002C08B
:1026D00080E790E00E94F4025DCFFFEF29EF30E049
:1026E000F15020403040E1F700C000009F9B03C044
:1026F0009F99FECFF2CF9F9BFECF4FEF89EF90E0E7
:10270000415080409040E1F700C00000AE9A7E0149
:10271000E9E0EE0EF11C0E94E50D81110FCFFE01E4
:10272000319691E0980FA82FB0E0AD5CBC4F2C9192
:102730002193923011F0953011F492E0980FEE153C
:10274000FF0511F0892FEDCF8EE2898783E48A8718
:1027500083E58B8786E58C870E94AD0D8111EECED7
:10276000E3E3F3E080E090E02191DC01A353BD4F6F
:102770002C9301968A309105B9F78CE28093D702A9
:10278000E0ECF2E08BE090E02191DC01A353BD4F3F
:102790002C93019683319105B9F78CE28093E00286
:1027A00080E00E947803EBE9F0E084E190E0219181
:1027B000DC01A353BD4F2C9301968B319105B9F7E2
:1027C0000BE110E091E08CE2C82EDD24D394D00E12
:1027D000D801A353BD4FCC92892F9E870E94B90385
:1027E000A8EAB0E028E0200F9E8581E08D0DED2D58
:1027F000F0E03D91E353FD4F3083821711F0D82E66
:10280000F4CF9F5F085F1F4F9830F9F68DE08093FB
:1028100020038AE080932103CE0101960E94300AB2
:1028200081118CCE84E690E0EFE1FEE43197F1F780
:1028300000C000009F9917C0FFEF29EF30E0F15072
:1028400020403040E1F700C000009F990CC09F9BE2
:10285000FECF4FEF89EF90E0415080409040E1F78C
:1028600000C0000004C001970097F1F654CFAE9865
:102870003FCFCE0101960E94200A8CCE70D088F006
:102880009F5790F0B92F9927B751A0F0D1F0660F5C
:10289000771F881F991F1AF0BA95C9F712C0B13077
:1028A00081F077D0B1E0089574C0672F782F882722
:1028B000B85F39F0B93FCCF3869577956795B395B6
:1028C000D9F73EF490958095709561957F4F8F4F25
:1028D0009F4F0895E89409C097FB3EF4909580952A
:1028E000709561957F4F8F4F9F4F9923A9F0F92FD6
:1028F00096E9BB279395F695879577956795B79554
:10290000F111F8CFFAF4BB0F11F460FF1BC06F5F39
:102910007F4F8F4F9F4F16C0882311F096E911C04B
:10292000772321F09EE8872F762F05C0662371F06C
:1029300096E8862F70E060E02AF09A95660F771F80
:10294000881FDAF7880F9695879597F9089557FDB0
:102950009058440F551F59F05F3F71F04795880F0D
:1029600097FB991F61F09F3F79F0879508951216A4
:1029700013061406551FF2CF4695F1DF08C0161650
:1029800017061806991FF1CF869571056105089401
:102990000895E894BB2766277727CB0197F9089518
:1029A0000BD078C069D028F06ED018F0952309F0CC
:1029B0005AC05FC01124EECFCADFA0F3959FD1F3B8
:1029C000950F50E0551F629FF001729FBB27F00DDD
:1029D000B11D639FAA27F00DB11DAA1F649F662732
:1029E000B00DA11D661F829F2227B00DA11D621F81
:1029F000739FB00DA11D621F839FA00D611D221F3B
:102A0000749F3327A00D611D231F849F600D211D1E
:102A1000822F762F6A2F11249F5750408AF0E1F0C1
:102A200088234AF0EE0FFF1FBB1F661F771F881F0A
:102A300091505040A9F79E3F510570F014C0AACFA5
:102A40005F3FECF3983EDCF3869577956795B795F5
:102A5000F795E7959F5FC1F7FE2B880F911D96951F
:102A6000879597F9089597F99F6780E870E060E08F
:102A700008959FEF80EC089500240A941616170617
:102A800018060906089500240A941216130614065F
:102A900005060895092E0394000C11F4882352F0C2
:102AA000BB0F40F4BF2B11F460FF04C06F5F7F4F7A
:102AB0008F4F9F4F0895A29FB001B39FC001A39F66
:102AC000700D811D1124911DB29F700D811D112467
:102AD000911D08950E945B15A59F900DB49F900DC8
:102AE000A49F800D911D11240895DB018F939F9366
:102AF0000E946A15BF91AF91A29F800D911DA39F67
:102B0000900DB29F900D11240895AA1BBB1B51E19B
:102B100007C0AA1FBB1FA617B70710F0A61BB70B4D
:102B2000881F991F5A95A9F780959095BC01CD01F2
:102B30000895A1E21A2EAA1BBB1BFD010DC0AA1FFE
:102B4000BB1FEE1FFF1FA217B307E407F50720F016
:102B5000A21BB30BE40BF50B661F771F881F991F91
:102B60001A9469F760957095809590959B01AC01DA
:102B7000BD01CF010895EE0FFF1F0590F491E02DE8
:062B80000994F894FFCF58
:102B860030782020202020202020002020202020F7
:102B96002020202020202020204279746573000008
:00000001FF
