:100000000C942A000C943F000C943F000C943F0089
:100010000C943F000C943F000C943F000C943F0064
:100020000C943F000C943F000C943F000C943F0054
:100030000C943F000C943F000C943F000C943F0044
:100040000C94A2000C943F000C943F000C943F00D1
:100050000C943F0011241FBECFE5D8E0DEBFCDBF1A
:1000600010E0A0E6B0E0E6E0F2E002C005900D92FC
:10007000AE36B107D9F70E94D4000C9401010C945C
:1000800000008FEF84BB88EF8ABB81B38B6F81BB8D
:1000900080E185BF8FE886B980EC87B90895CF935A
:1000A000DF939C01EAE0F0E0BF010E94D900809359
:1000B0006000C90164E670E00E94D900EB01BF0155
:1000C0000E94D90060936100CE01BF010E94D90057
:1000D00080936200C90168EE73E00E94D9006093CA
:1000E0006300DF91CF91089540E050E061E070E05F
:1000F0004817590731F124E030E0273019F4E09136
:10010000630004C0F901E45AFF4FE081F0E0EC59CC
:10011000FF4FE081E5BBFB01022E01C0EE0F0A9408
:10012000EAF7EBBBEFECF7E03197F1F700C0000026
:100130001BBA2F5F3F4F28303105F9F64F5F5F4FF5
:10014000D7CF08951F920F920FB60F9211242F93BD
:100150003F934F935F936F937F938F939F93AF934F
:10016000BF93EF93FF9384B195B1982F80E06FEF29
:1001700073E00E94ED00CB010E944F0081E090E00F
:100180000E947400369AFF91EF91BF91AF919F91B9
:100190008F917F916F915F914F913F912F910F9030
:1001A0000FBE0F901F9018950E9441007894369AC8
:1001B000FFCFAA1BBB1B51E107C0AA1FBB1FA6177D
:1001C000B70710F0A61BB70B881F991F5A95A9F700
:1001D00080959095BC01CD01089597FB072E16F4EC
:1001E000009407D077FD09D00E94D90007FC05D004
:1001F0003EF4909581959F4F0895709561957F4F3E
:060200000895F894FFCF01
:0E020600010203043F065B4F666D7D077F6FAC
:00000001FF
