:100000000C942A000C943F000C943F000C943F0089
:100010000C943F000C943F000C943F000C943F0064
:100020000C943F000C943F000C943F000C943F0054
:100030000C943F000C943F000C943F000C943F0044
:100040000C943F000C943F000C943F000C943F0034
:100050000C943F0011241FBECFE5D8E0DEBFCDBF1A
:1000600010E0A0E6B0E0ECE1F1E002C005900D92F6
:10007000AC3BB107D9F70E9461000C948C000C9442
:10008000000090BD89B988E18AB98EE880BD0895E5
:100090005D9BFECF8CB908955F9BFECF8CB1089518
:1000A000CF93DF93EC018991882319F00E944800D7
:1000B000FACFDF91CF9108958BB1881F8827881FD1
:1000C00008958FEF8ABB17BA18BA2FEF83ED90E32C
:1000D000215080409040E1F700C0000083E390E0B1
:1000E0000E94410080E690E00E94500087E690E088
:1000F0000E94500081E890E00E94500089EB90E05F
:100100000E9450002FEF84E39CE0215080409040FB
:0C011000E1F700C00000F2CFF894FFCF30
:10011C001B5B324A1B6300526561647920746F204B
:10012C00726F636B20616E6420726F6C6C210A0DB0
:10013C00005479706520696E20612063686172617A
:10014C00637465722C20616E6420492077696C6C35
:10015C00207472616E73706F736520697420757092
:0C016C0020627920313A0A0D00410000A9
:00000001FF
