:100000000C942A000C9434000C9434000C943400AA
:100010000C9434000C9434000C9434000C94340090
:100020000C9434000C9434000C9434000C94340080
:100030000C9434000C9434000C9434000C94340070
:100040000C9434000C9434000C9434000C94340060
:100050000C94340011241FBECFE5D8E0DEBFCDBF25
:100060000E9436000C9447000C94000084E084BB8E
:1000700085BB44E028EC30E085B3842785BB88E865
:1000800093E1F9013197F1F70197D9F7F5CFF8949A
:02009000FFCFA0
:00000001FF
