:100000000C942A000C94B0000C94BC000C94470093
:100010000C9447000C9447000C9447000C94470044
:100020000C9447000C9447000C945E000C9447001D
:100030000C9447000C9447000C9447000C94470024
:100040000C9447000C9447000C9447000C94470014
:100050000C94470011241FBECFE5D8E0DEBFCDBF12
:1000600010E0A0E6B0E0EEEAF4E002C005900D92E8
:10007000A437B107D9F710E0A4E7B0E001C01D92A2
:10008000AC37B107E1F70E9435010C9455020C948E
:1000900000008FEF84BB8CEF8ABB81B38B6F81BB79
:1000A00088E08BBB8AE883BF89EF8CBF89B7826009
:1000B00089BF8FE085BF80EC8BBF08951F920F92A0
:1000C0000FB60F9211242F933F934F935F936F932B
:1000D0008F939F9380917500882319F1809161001F
:1000E00081508093610081111CC084E08093610085
:1000F000809176009091770001969093770080939D
:100100007600883E934069F4109277001092760052
:10011000809178008F5F809378008A3011F410927C
:10012000780060917800209176003091770048EE59
:1001300053E0649FC001659F900D1124820F931FAF
:1001400090937B0080937A009F918F916F915F9144
:100150004F913F912F910F900FBE0F901F901895C8
:100160001F920F920FB60F921124109260000F9001
:100170000FBE0F901F9018951F920F920FB60F92FF
:1001800011248F931092750081E0809360008F910D
:100190000F900FBE0F901F901895CF93DF939C0187
:1001A000EAE0F0E0BF010E946C0180936200C901A7
:1001B00064E670E00E946C01EB01BF010E946C01DB
:1001C00060936300CE01BF010E946C0180936400C4
:1001D000C90168EE73E00E946C0160936500DF91D5
:1001E000CF91089540E050E061E070E04817590772
:1001F00059F124E030E0273041F4E0916500F0E06F
:10020000EA59FF4FE081E05808C0F901E25AFF4F78
:10021000E081F0E0EA59FF4FE081E5BBFB01022EEF
:1002200001C0EE0F0A94EAF7EBBBEFECF7E0319771
:10023000F1F700C000001BBA2F5F3F4F2830310597
:10024000D1F64F5F5F4FD2CF0895089520E030E0A0
:100250002817390749F0EFECF7E03197F1F700C0C4
:1002600000002F5F3F4FF4CF08950E94490078941B
:10027000C5E0D0E008EE13E080E1E82EFF24F3941F
:1002800080917A0090917B000E94CD0081E090E007
:100290000E94F200809160008111F2CF8091600095
:1002A0008111EECF80917400811110C00E94E20193
:1002B000BE010E94800103969C01209FC001219FE6
:1002C000900D309F900D11240E942601E2BAF09209
:1002D0007500F0927400D4CFAA1BBB1B51E107C07C
:1002E000AA1FBB1FA617B70710F0A61BB70B881FC6
:1002F000991F5A95A9F780959095BC01CD01089555
:1003000097FB072E16F4009407D077FD09D00E94C2
:100310006C0107FC05D03EF4909581959F4F0895A0
:10032000709561957F4F08958F929F92AF92BF9283
:10033000CF92DF92EF92FF92CF93DF93EC0168812F
:1003400079818A819B81611571058105910521F46F
:1003500064E279ED8BE597E02DE133EF41E050E089
:100360000E94050249015A019B01AC01A7EAB1E4D0
:100370000E94F2016B017C01ACEEB4EFA501940187
:100380000E940002C60ED71EE81EF91EF7FE06C028
:1003900081E0C81AD108E10880E8F80AC882D98249
:1003A000EA82FB82C6019F77DF91CF91FF90EF90A9
:1003B000DF90CF90BF90AF909F908F9008950E9454
:1003C0009401089580E790E00E9494010895A0E0D0
:1003D000B0E08093700090937100A0937200B0938E
:1003E000730008950E942402A59F900DB49F900D64
:1003F000A49F800D911D11240895B7FF0C94F20164
:100400000E94F201821B930B0895052E97FB1EF4A8
:1004100000940E941C0257FD07D00E94330207FC83
:1004200003D04EF40C941C025095409530952195C4
:100430003F4F4F4F5F4F0895909580957095619510
:100440007F4F8F4F9F4F0895A29FB001B39FC00170
:10045000A39F700D811D1124911DB29F700D811DF0
:100460001124911D0895A1E21A2EAA1BBB1BFD01A8
:100470000DC0AA1FBB1FEE1FFF1FA217B307E40783
:10048000F50720F0A21BB30BE40BF50B661F771FDB
:10049000881F991F1A9469F76095709580959095BB
:0E04A0009B01AC01BD01CF010895F894FFCF80
:1004AE000104010203043F065B4F666D7D077F6FFB
:0404BE000100000039
:040000030000024AAD
:00000001FF
